:020000040800F2
:1000000000000220655D0408C1EE0008C5EE00088E
:10001000D9EE0008DDEE0008E1EE00080000000067
:100020000000000000000000000000004171010815
:10003000E5EE000800000000D1710108214A010826
:10004000215E0408215E0408215E0408215E040884
:10005000215E0408215E0408215E0408215E040874
:10006000E9EE0008215E0408215E0408215E040810
:10007000215E0408F1EE0008FDEE000809EF00081B
:1000800015EF0008215E0408215E040821EF000836
:100090002DEF0008215E0408215E040839EF0008F6
:1000A0004DEF0008215E0408215E0408215E04086B
:1000B00069EF000875EF0008215E040881EF000871
:1000C0008DEF0008215E0408215E040899EF000806
:1000D000A5EF0008B1EF0008215E0408BDEF00089D
:1000E000C9EF0008215E0408215E0408215E0408AF
:1000F000D1EF0008215E0408215E0408215E040897
:10010000215E0408215E0408EDEF0008F9EF000805
:10011000215E0408215E040805F0000811F00008C3
:100120001DF00008215E040829F0000835F00008E1
:1001300041F00008215E0408215E0408215E0408E5
:10014000215E0408215E0408215E04084DF00008C9
:10015000215E0408215E0408215E0408215E040873
:10016000215E0408215E0408215E0408215E040863
:10017000215E0408215E0408215E040800000000DE
:08018000215E0408215E040861
:10C0000084AA0508000000102C0900100000002080
:10C010006031012007484FF480410160064807491C
:10C02000016007484FF0010101600648D0F800D0D8
:10C030004068004744380240004002400DF0ADBA6D
:10C04000003801400000FF1F000000000000000059
:10C0500000000000000000000000000000000000E0
:10C0600000000000000000000000000000000000D0
:10C0700000000000000000000000000000000000C0
:10C0800030B490F800F020F007016FF0000C10F0D1
:10C09000070491F820F040F048804FF000046FF062
:10C0A0000700D1E9002391F840F000F1080082FA7E
:10C0B0004CF2A4FA8CF283FA4CF3A2FA8CF34BBB49
:10C0C000D1E9022382FA4CF200F10800A4FA8CF2C2
:10C0D00083FA4CF3A2FA8CF3E3B9D1E9042382FA90
:10C0E0004CF200F10800A4FA8CF283FA4CF3A2FAA5
:10C0F0008CF37BB9D1E9062301F1200182FA4CF2DD
:10C1000000F10800A4FA8CF283FA4CF3A2FA8CF343
:10C11000002BC6D0002A04BF04301A4612BAB2FA65
:10C1200082F200EBD20030BC7047D1E9002304F06A
:10C130000305C4F100004FEAC50514F0040F91F89F
:10C1400040F00CFA05F562EA05021CBF63EA05033C
:10C1500062464FF00004AAE7000000000000000063
:10C1600002780B78012A28BF9A4240F0D8806DE906
:10C17000044540EA0104CDE902676FF0000C4FEA84
:10C1800044721AB380EA010414F0070F6BD100F077
:10C19000070420F0070004F0030521F007014FEA2F
:10C1A000C505F0E8042314F0040FF1E804670CFA65
:10C1B00005F462EA040266EA04060BD063EA0403AB
:10C1C000624667EA0407664604E000BFF0E804231D
:10C1D000F1E8046782FA4CF582EA0604A4FA8CF4CA
:10C1E0006CBB83FA4CF583EA0705A5FA8CF595B983
:10C1F00050E9022351E9026782FA4CF582EA06040B
:10C20000A4FA8CF483FA4CF583EA0705A5FA8CF5B9
:10C210002543DBD09CB92DBAB5FA85F424F0070488
:10C2200027FA04F1DDE9026723FA04F303F0FF00C3
:10C2300001F0FF01FDE80445A0EB0100704724BABE
:10C24000B4FA84F424F0070426FA04F1DDE9026765
:10C2500022FA04F202F0FF0001F0FF01FDE80445BC
:10C26000A0EB0100704714F0030F3CD110F0030461
:10C2700028D150F8082B51F8083B82FA4CF582EA95
:10C280000305A5FA8CF55DB950F8042C51F8043C6F
:10C2900082FA4CF582EA0305A5FA8CF5002DE8D068
:10C2A0002DBAB5FA85F424F0070423FA04F122FA32
:10C2B00004F202F0FF0001F0FF01FDE80445A0EBED
:10C2C000010070474FEAC40420F0030050F8082B27
:10C2D00021F0030151F8083B0CFA04F462EA04026D
:10C2E00063EA0403C9E710F003041DD0A1EB0401C5
:10C2F00020F00300E40750F8042B06D012D28B780C
:10C300005FFAA2F4E41A06D12BB1CB785FFAB2F44B
:10C31000E41A00D133B920465DF8104B7047A2EB08
:10C320000300704701F1040150F8042BCC0721F001
:10C33000030151F8043B48D824D222F07F4482FA0A
:10C340004CF594EA1325A5FA8CF50AD165B951F894
:10C35000043B84EA0204B4EB036F0ED150F8042BC3
:10C36000EBE74FEA132355E035F07F454DD10878D0
:10C37000FDE80445C0F1000070474FEA126203F087
:10C38000FF0347E002EA1C4482FA4CF594EA1345A5
:10C39000A5FA8CF50AD165B951F8043B84EA020488
:10C3A000B4EB034F0CD150F8042BEBE74FEA1343E7
:10C3B00030E015EA1C4528D10B884FEA124229E0EB
:10C3C0004FEA124203EA1C4324E002F0FF0482FA1F
:10C3D0004CF594EA1365A5FA8CF50AD165B951F8C4
:10C3E000043B84EA0204B4EB032F09D150F8042B78
:10C3F000EBE74FEA13630DE015F0FF0F05D10B6873
:10C400004FEA122223F07F4304E04FF00000FDE8E2
:10C410000445704712BA1BBA82FA4CF482EA03044C
:10C42000A4FA8CF5B5FA85F402FA04F203FA04F3DF
:10C430004FEA1260FDE80445A0EB1360704700BFAF
:10C4400001F0FF01102A2BDB10F0070F08D010F8C5
:10C45000013B013A8B422DD010F0070F42B3F6D1C9
:10C46000F0B441EA012141EA014122F007047FF0E2
:10C4700000070023F0E80256083C85EA010586EA39
:10C48000010685FA47F5A3FA87F586FA47F6A5FA75
:10C4900087F68EB9EED1F0BC01F0FF0102F0070281
:10C4A00032B110F8013B013A83EA010313B1F8D12C
:10C4B0000020704701387047002D06BF354603380D
:10C4C000073815F0010F07D1013015F4807F02BF46
:10C4D000013015F4C03F0130F0BC0138704700BF97
:10C4E000844641EA000313F003036DD1403A41D37F
:10C4F00051F8043B40F8043B51F8043B40F8043B3E
:10C5000051F8043B40F8043B51F8043B40F8043B2D
:10C5100051F8043B40F8043B51F8043B40F8043B1D
:10C5200051F8043B40F8043B51F8043B40F8043B0D
:10C5300051F8043B40F8043B51F8043B40F8043BFD
:10C5400051F8043B40F8043B51F8043B40F8043BED
:10C5500051F8043B40F8043B51F8043B40F8043BDD
:10C5600051F8043B40F8043B51F8043B40F8043BCD
:10C57000403ABDD2303211D351F8043B40F8043B6D
:10C5800051F8043B40F8043B51F8043B40F8043BAD
:10C5900051F8043B40F8043B103AEDD20C3205D37D
:10C5A00051F8043B40F8043B043AF9D2043208D075
:10C5B000D2071CBF11F8013B00F8013B01D30B88E7
:10C5C00003806046704700BF082A13D38B078DD0C5
:10C5D00010F003038AD0C3F10403D21ADB071CBF97
:10C5E00011F8013B00F8013B80D331F8023B20F801
:10C5F000023B7BE7043AD9D3013A11F8013B00F83A
:10C60000013BF9D20B7803704B7843708B788370C1
:10C610006046704781F0004102E000BF83F00043B4
:10C6200030B54FEA41044FEA430594EA050F08BFCD
:10C6300090EA020F1FBF54EA000C55EA020C7FEA91
:10C64000645C7FEA655C00F0E2804FEA5454D4EB0E
:10C650005555B8BF6D420CDD2C4480EA020281EAD8
:10C66000030382EA000083EA010180EA020281EA10
:10C670000303362D88BF30BD11F0004F4FEA013162
:10C680004FF4801C4CEA113102D0404261EB410171
:10C6900013F0004F4FEA03334CEA133302D05242F7
:10C6A00063EB430394EA050F00F0A780A4F10104B3
:10C6B000D5F1200E0DDB02FA0EFC22FA05F28018ED
:10C6C00041F1000103FA0EF2801843FA05F35941D3
:10C6D0000EE0A5F120050EF1200E012A03FA0EFC52
:10C6E00028BF4CF0020C43FA05F3C01851EBE3717C
:10C6F00001F0004507D54FF0000EDCF1000C7EEB99
:10C7000000006EEB0101B1F5801F1BD3B1F5001FD6
:10C710000CD349085FEA30004FEA3C0C04F10104F5
:10C720004FEA445212F5800F80F09A80BCF1004F1E
:10C7300008BF5FEA500C50F1000041EB045141EAA0
:10C74000050130BD5FEA4C0C404141EB0101013C69
:10C7500028BFB1F5801FE9D291F0000F04BF014658
:10C760000020B1FA81F308BF2033A3F10B03B3F12A
:10C7700020020CDA0C3208DD02F1140CC2F10C02BA
:10C7800001FA0CF021FA02F10CE002F11402D8BF18
:10C79000C2F1200C01FA02F120FA0CFCDCBF41EAE4
:10C7A0000C019040E41AA2BF01EB0451294330BDB3
:10C7B0006FEA04041F3C1CDA0C340EDC04F1140490
:10C7C000C4F1200220FA04F001FA02F340EA030067
:10C7D00021FA04F345EA030130BDC4F10C04C4F1AD
:10C7E000200220FA02F001FA04F340EA030029468D
:10C7F00030BD21FA04F0294630BD94F0000F83F4D7
:10C80000801306BF81F480110134013D4EE77FEAB9
:10C81000645C18BF7FEA655C29D094EA050F08BF05
:10C8200090EA020F05D054EA000C04BF19461046E6
:10C8300030BD91EA030F1EBF0021002030BD5FEA2A
:10C84000545C05D14000494128BF41F0004130BD52
:10C8500014F580043CBF01F5801130BD01F00045A6
:10C8600045F0FE4141F470014FF0000030BD7FEA19
:10C87000645C1ABF194610467FEA655C1CBF0B4614
:10C88000024650EA013406BF52EA033591EA030F2B
:10C8900041F4002130BD00BF90F0000F04BF002123
:10C8A000704730B54FF4806404F132044FF0000556
:10C8B0004FF0000150E700BF90F0000F04BF0021CF
:10C8C000704730B54FF4806404F1320410F0004535
:10C8D00048BF40424FF000013EE700BF42004FEA30
:10C8E000E2014FEA31014FEA02701FBF12F07F43AD
:10C8F00093F07F4F81F06051704732F07F4208BF64
:10C90000704793F07F4F04BF41F40021704730B56A
:10C910004FF4607401F0004521F000411CE700BFB6
:10C9200050EA010208BF704730B54FF000050AE039
:10C9300050EA010208BF704730B511F0004502D53A
:10C94000404261EB41014FF4806404F132045FEA3C
:10C95000915C3FF4D8AE4FF003025FEADC0C18BFE5
:10C9600003325FEADC0C18BF033202EBDC02C2F1D7
:10C97000200300FA03FC20FA02F001FA03FE40EA69
:10C980000E0021FA02F11444BDE600BF70B54FF06D
:10C99000FF0C4CF4E06C1CEA11541DBF1CEA13554B
:10C9A00094EA0C0F95EA0C0F00F0DEF82C4481EAB3
:10C9B000030621EA4C5123EA4C5350EA013518BFD3
:10C9C00052EA033541F4801143F4801338D0A0FBC0
:10C9D00002CE4FF00005E1FB02E506F00042E0FB6D
:10C9E00003E54FF00006E1FB03569CF0000F18BF73
:10C9F0004EF0010EA4F1FF04B6F5007F64F540741B
:10CA000004D25FEA4E0E6D4146EB060642EAC621AD
:10CA100041EA55514FEAC52040EA5E504FEACE2E1A
:10CA2000B4F1FD0C88BFBCF5E06F1ED8BEF1004F1D
:10CA300008BF5FEA500E50F1000041EB045170BD99
:10CA400006F0004646EA010140EA020081EA0301DD
:10CA5000B4EB5C04C2BFD4EB0C0541EA045170BDD9
:10CA600041F480114FF0000E013C00F3AB8014F153
:10CA7000360FDEBF002001F0004170BDC4F100049C
:10CA8000203C35DA0C341BDC04F11404C4F120051D
:10CA900000FA05F320FA04F001FA05F240EA020078
:10CAA00001F0004221F0004110EBD37021FA04F6AE
:10CAB00042EB06015EEA430E08BF20EAD37070BD68
:10CAC000C4F10C04C4F1200500FA04F320FA05F0C7
:10CAD00001FA04F240EA020001F0004110EBD370C9
:10CAE00041F100015EEA430E08BF20EAD37070BD39
:10CAF000C4F1200500FA05F24EEA020E20FA04F312
:10CB000001FA05F243EA020321FA04F001F00041C0
:10CB100021FA04F220EA020000EBD3705EEA430E31
:10CB200008BF20EAD37070BD94F0000F0FD101F060
:10CB30000046400041EB010111F4801F08BF013C99
:10CB4000F7D041EA060195F0000F18BF704703F0D7
:10CB50000046520043EB030313F4801F08BF013D5E
:10CB6000F7D043EA0603704794EA0C0F0CEA13551A
:10CB700018BF95EA0C0F0CD050EA410618BF52EAD4
:10CB80004306D1D181EA030101F000414FF00000DA
:10CB900070BD50EA410606BF1046194652EA4306E8
:10CBA00019D094EA0C0F02D150EA013613D195EA5C
:10CBB0000C0F05D152EA03361CBF104619460AD1A4
:10CBC00081EA030101F0004141F0FE4141F47001AE
:10CBD0004FF0000070BD41F0FE4141F4780170BD9E
:10CBE00070B54FF0FF0C4CF4E06C1CEA11541DBF03
:10CBF0001CEA135594EA0C0F95EA0C0F00F0A7F805
:10CC0000A4EB050481EA030E52EA03354FEA013131
:10CC100000F088804FEA03334FF0805545EA131344
:10CC200043EA12634FEA022245EA111545EA10650C
:10CC30004FEA00260EF000419D4208BF964244F1A3
:10CC4000FD0404F5407402D25B084FEA3202B61AC2
:10CC500065EB03055B084FEA32024FF480104FF496
:10CC6000002CB6EB020E75EB030E22BFB61A75460A
:10CC700040EA0C005B084FEA3202B6EB020E75EB9D
:10CC8000030E22BFB61A754640EA5C005B084FEA05
:10CC90003202B6EB020E75EB030E22BFB61A7546D2
:10CCA00040EA9C005B084FEA3202B6EB020E75EBDD
:10CCB000030E22BFB61A754640EADC0055EA060E9E
:10CCC00018D04FEA051545EA16754FEA06164FEAE1
:10CCD000C30343EA52734FEAC2025FEA1C1CC0D18D
:10CCE00011F4801F0BD141EA00014FF000004FF01A
:10CCF000004CB6E711F4801F04BF01430020B4F1DB
:10CD0000FD0C88BFBCF5E06F3FF6AFAEB5EB030C92
:10CD100004BFB6EB020C5FEA500C50F1000041EB8F
:10CD2000045170BD0EF0004E4EEA113114EB5C045C
:10CD3000C2BFD4EB0C0541EA045170BD41F480112F
:10CD40004FF0000E013C90E645EA060E8DE60CEA37
:10CD5000135594EA0C0F08BF95EA0C0F3FF43BAF54
:10CD600094EA0C0F0AD150EA01347FF434AF95EA0B
:10CD70000C0F7FF425AF104619462CE795EA0C0FEF
:10CD800006D152EA03353FF4FDAE1046194622E7BC
:10CD900050EA410618BF52EA43067FF4C5AE50EA96
:10CDA00041047FF40DAF52EA43057FF4EBAE12E786
:10CDB0004FF0FF3C06E000BF4FF0010C02E000BF67
:10CDC0004FF0010C4DF804CD4FEA410C7FEA6C5C4A
:10CDD0004FEA430C18BF7FEA6C5C1BD001B050EAED
:10CDE000410C0CBF52EA430C91EA030F02BF90EAD8
:10CDF000020F0020704710F1000F91EA030F58BF97
:10CE0000994208BF90422CBFD8176FEAE37040F0F8
:10CE1000010070474FEA410C7FEA6C5C02D150EA96
:10CE2000013C07D14FEA430C7FEA6C5CD6D152EA51
:10CE3000033CD3D05DF8040B704700BF8446104616
:10CE400062468C461946634600E000BF01B5FFF715
:10CE5000B7FF002848BF10F1000F01BD4DF808EDE5
:10CE6000FFF7F4FF0CBF012000205DF808FB00BFB6
:10CE70004DF808EDFFF7EAFF34BF012000205DF810
:10CE800008FB00BF4DF808EDFFF7E0FF94BF01205D
:10CE900000205DF808FB00BF4DF808EDFFF7CEFF5E
:10CEA00094BF012000205DF808FB00BF4DF808ED9D
:10CEB000FFF7C4FF34BF012000205DF808FB00BF6E
:10CEC0004FEA410C7FEA6C5C02D150EA013C0AD186
:10CED0004FEA430C7FEA6C5C02D152EA033C02D178
:10CEE0004FF0000070474FF0010070474FEA4102D9
:10CEF00012F5001215D211D56FF47873B3EB6252AC
:10CF000012D94FEAC12343F0004343EA505311F0D2
:10CF1000004F23FA02F018BF404270474FF0000064
:10CF2000704750EA013005D111F0004008BF6FF0A2
:10CF3000004070474FF00000704700BF4A0011D218
:10CF400012F5001211D20DD56FF47873B3EB625263
:10CF50000ED44FEAC12343F0004343EA505323FA6F
:10CF600002F070474FF00000704750EA013002D1E4
:10CF70004FF0FF3070474FF0000070474FEA41021A
:10CF8000B2F1E04324BFB3F5001CDCF1FE5C0DD927
:10CF900001F0004C4FEAC0024CEA5070B2F1004F71
:10CFA00040EB830008BF20F00100704711F0804F74
:10CFB00021D113F13872BCBF01F00040704741F439
:10CFC00080114FEA5252C2F11802C2F1200C10FA3D
:10CFD0000CF320FA02F018BF40F001004FEAC12321
:10CFE0004FEAD32303FA0CFC40EA0C0023FA02F3C5
:10CFF0004FEA4303CCE77FEA625307D150EA01339B
:10D000001EBF4FF0FE4040F44000704701F000406A
:10D0100040F0FE4040F40000704700BF80F0004048
:10D0200002E000BF81F0004142001FBF5FEA410300
:10D0300092EA030F7FEA226C7FEA236C6AD04FEA00
:10D040001262D2EB1363C1BFD21841404840414045
:10D05000B8BF5B42192B88BF704710F0004F40F4F7
:10D06000000020F07F4018BF404211F0004F41F413
:10D07000000121F07F4118BF494292EA030F3FD0DF
:10D08000A2F1010241FA03FC10EB0C00C3F12003F2
:10D0900001FA03F100F0004302D5494260EB400081
:10D0A000B0F5000F13D3B0F1807F06D340084FEAEC
:10D0B000310102F10102FE2A51D2B1F1004F40EBE1
:10D0C000C25008BF20F0010040EA03007047490049
:10D0D00040EB0000013A28BFB0F5000FEDD2B0FAE6
:10D0E00080FCACF1080CB2EB0C0200FA0CF0AABF09
:10D0F00000EBC25052421843BCBFD04018437047A7
:10D1000092F0000F81F4000106BF80F400000132AC
:10D11000013BB5E74FEA41037FEA226C18BF7FEA83
:10D12000236C21D092EA030F04D092F0000F08BFC5
:10D130000846704790EA010F1CBF0020704712F0AC
:10D140007F4F04D1400028BF40F00040704712F1EB
:10D1500000723CBF00F50000704700F0004343F050
:10D16000FE4040F4000070477FEA226216BF084686
:10D170007FEA23630146420206BF5FEA412390EA49
:10D18000010F40F4800070474FF0000304E000BF3F
:10D1900010F0004348BF40425FEA000C08BF7047F0
:10D1A00043F0964301464FF000001CE050EA0102B4
:10D1B00008BF70474FF000030AE000BF50EA0102C9
:10D1C00008BF704711F0004302D5404261EB4101B6
:10D1D0005FEA010C02BF84460146002043F0B643DB
:10D1E00008BFA3F18053A3F50003BCFA8CF2083A00
:10D1F000A3EBC25310DB01FA02FC634400FA02FC09
:10D20000C2F12002BCF1004F20FA02F243EB02000F
:10D2100008BF20F00100704702F1200201FA02FC71
:10D22000C2F1200250EA4C0021FA02F243EB020064
:10D2300008BF20EADC7070477BB972B90029BEBF15
:10D2400000204FF0004106E008BF00281CBF6FF02F
:10D2500000414FF0FF3000F057B8ADF1080C6DE918
:10D2600004CE002909DB002B1ADB43F097FBDDF825
:10D2700004E0DDE9022304B07047404261EB410164
:10D28000002B1BDB43F08AFBDDF804E0DDE9022321
:10D2900004B0404261EB4101524263EB43037047EB
:10D2A000524263EB430343F079FBDDF804E0DDE930
:10D2B000022304B0404261EB41017047524263EBEC
:10D2C000430343F06BFBDDF804E0DDE9022304B027
:10D2D000524263EB4303704753B94AB9002908BF70
:10D2E00000281CBF4FF0FF314FF0FF3000F00CB8AA
:10D2F000ADF1080C6DE904CE43F050FBDDF804E01D
:10D30000DDE9022304B07047704700BF0348044BB7
:10D31000834202D0034B03B1184770472C09001019
:10D320002C090010000000000548064B1B1AD90FFD
:10D3300001EBA301491002D0034B03B1184770471A
:10D340002C0900102C0900100000000010B5064C3C
:10D35000237843B9FFF7DAFF044B13B10448AFF366
:10D3600000800123237010BD000000200000000099
:10D37000580C050808B5054B1BB105490548AFF326
:10D380000080BDE80840FFF7CFBF00BF00000000ED
:10D3900004000020580C0508704700BF704700BF0C
:10D3A00001F012B84FF0500383F31188BFF36F8F71
:10D3B000BFF34F8F704700BFBFF34F8F0549064B38
:10D3C000CA6802F4E0621343CB60BFF34F8F00BF23
:10D3D000FDE700BF00ED00E00400FA0508B50948CC
:10D3E0000022022103F01AFC06480022012103F06A
:10D3F00015FC05480022802103F010FC20F08CF978
:10D40000FCE700BF00100240000C024030B50024D1
:10D4100095B0CDE90A44CDE90344CDE90544274A56
:10D4200001940C940794116C254B41F080511164C8
:10D43000126C02F080520192019A02941A6842F42E
:10D4400080421A601B6803F48043029309224FF460
:10D450008033CDE90823022501224FF48003CDE972
:10D460000D250F930422A823CDE9102308A8072334
:10D47000CDE91253029904F0EFFD90B94FF4A05397
:10D480000025CDE905530F2202244FF4805303A851
:10D490000521CDE90324079304F0F4FF38B915B052
:10D4A00030BD08482246294603F0B8FBE6E70548A8
:10D4B0002A46214603F0B2FB15B030BD00380240C9
:10D4C00000700040001002400C48042310B54FF0DB
:10D4D000A0414FF400720224037101230160C28055
:10D4E000C0F80940C38104F04BFD00B910BD2146CE
:10D4F0000348BDE81040002203F090BB200001204B
:10D50000001002402DE9804800249FB001F0F2FE97
:10D51000FFF77CFFCDE91544CDE91744BF4D0294D8
:10D5200019942B6BBE4843F010032B632B6B03F055
:10D5300010030293029B03942B6B43F004032B63B1
:10D540002B6B03F004030393039B04942B6B43F0B6
:10D5500080032B632B6B03F080030493049B0594DF
:10D560002B6B012213432B632B6B13400593059BFD
:10D5700006942B6B43F002032B632B6B03F0020327
:10D580000693069B07942B6B43F008032B632B6BCE
:10D5900003F0080307931021079B03F03FFBA1480A
:10D5A000224641F2030103F039FB9F48224641F233
:10D5B000834103F033FB9D4822464FF4777103F01B
:10D5C0002DFB224696484FF4004103F027FB01262D
:10D5D0007C239548179615A9CDE9153403F042F937
:10D5E0004FF460439248159315A94FF010084FF07F
:10D5F000030ACDE9164603F035F98948179415A9B1
:10D60000022741F20309CDE91586CDF860A003F0A9
:10D6100029F98448CDF8549015A94FF4881BCDE919
:10D620001664189703F01EF904237E48179715A96E
:10D63000CDE9153B03F016F980237B48159315A916
:10D64000CDE91667189403F00DF9CDE916B77648C1
:10D650004FF4807B15A9CDF854B003F003F94FF4D3
:10D6600080637148159315A9CDE91667189603F0E4
:10D67000F9F86D4815A9CDE91596CDE9174403F0E1
:10D68000F1F84FF443736948159315A94FF4004915
:10D69000CDE91664189603F0E5F84FF404136348D7
:10D6A000179415A9CDE9159303F0DCF86048179499
:10D6B00015A9CDE915B403F0D5F8594815A9CDE958
:10D6C0001596CDE9174703F0CDF8D02357481593A9
:10D6D00015A94FF02009CDE91664189403F0C2F89B
:10D6E0004FF444135148179615A9CDE9159303F04B
:10D6F000B9F830234B48159315A9CDE9164403F02A
:10D70000B1F822460621082002F0AEFC082002F003
:10D71000E7FC22460D21172002F0A6FC172002F09C
:10D72000DFFC22460D21282002F09EFC282002F07A
:10D73000D7FC00942B6B43F480032B632B6B03F417
:10D7400080030093009B01942B6B43F400132B6325
:10D750002B6B03F400132246052101930D20019B3E
:10D7600002F082FC0D2002F0BBFC224609210E20B3
:10D7700002F07AFC0E2002F0B3FC224609210F20B1
:10D7800002F072FC0F2002F0ABFC2246052140465D
:10D7900002F06AFC404602F0A3FC22460A213A202D
:10D7A00002F062FC3A2002F09BFC224606213B205C
:10D7B00002F05AFC3B2002F093FC0A2122463C2056
:10D7C00002F052FC3C2002F08BFC1A481A4B03601A
:10D7D0004FF6FF73C36015A90523CDE91676CDE991
:10D7E0001C44C0E90149CDF854A018940E941B962E
:10D7F0001A970F9404618461199306F0D3F90028F5
:10D8000040F02D8400240B480EA9CDE90E4406F00B
:10D81000ADFB002840F0B185084811E00038024017
:10D82000000002400004024000100240000C0240D0
:10D83000000802404407012000040040F40C0120CD
:10D84000C74B03604FF4803343600123036180F8CA
:10D85000303043614FF080564FF010630024C0E930
:10D860000A360823CDE91544CDE9174484600476CF
:10D8700080F82040C460C36101F09AFD002840F0A8
:10D88000758503210122CDE915120423B5481793AC
:10D8900015A901F033FF002840F061850224B1484A
:10D8A00015A9CDE9154401F029FF002840F0508565
:10D8B0000D220323AB4815A9CDE9152301F01EFF66
:10D8C000002840F03E850C220423A64815A9CDE986
:10D8D000152301F013FF002840F02C850B220523AF
:10D8E000A04815A9CDE9152301F008FF002840F054
:10D8F0001A850A2206239B4815A9CDE9152301F0B4
:10D90000FDFE002840F0088510210722CDE9151200
:10D9100003239448179315A901F0F0FE002840F066
:10D92000F484112208238F4815A9CDE9152301F0AD
:10D93000E5FE002840F0E2848B484FF0804300244D
:10D9400003604FF0FF33CDE90A44CDE90C44CDE943
:10D950001544CDE91744CDE90E44CDE91044CDE995
:10D960000844C0E90144199404618461C36006F06D
:10D9700061F8002840F0BB844FF480537A480A9342
:10D980000AA905F075FE002840F0AA84764806F042
:10D99000DBF8002840F09D84042060230024CDE9BA
:10D9A000150302257048199415A9CDE9175405F0FF
:10D9B00009FF002840F08684002402256A480E945E
:10D9C00022460EA9CDE910440F9506F03BFA002837
:10D9D00040F0718402240123634804220EA9CDE99A
:10D9E0000E4306F02FFA002840F05E8400245E48C3
:10D9F00008A9CDE9084406F0B9FA002840F04D84A2
:10DA000000242022214615A8CDE90A44CDE90C4482
:10DA1000CDE90844CDE90E44CDE91044CDE91244E6
:10DA200014943AF085FC5148514B03604FF6FF7354
:10DA3000C3608023C0E90144C0E90444836105F068
:10DA4000F9FF002840F022844FF4805347480A939E
:10DA50000AA905F00DFE002840F01184434806F0A5
:10DA600045F8002840F004840024404808A9CDE986
:10DA7000084406F07BFA002840F0F4830024602379
:10DA80003A48149422460EA9CDE90E34CDE910444B
:10DA9000CDE9124406F03AF9002840F0DD8333481E
:10DAA00004220EA906F032F9002840F0CF832F4857
:10DAB00008220EA906F02AF9002840F0C1832B485D
:10DAC0000C220EA906F022F9002840F0B3830024AE
:10DAD0004FF400532548199415A9CDE91544CDE913
:10DAE00017441C941A9306F081FA002840F08A83A8
:10DAF0001E48DFF888A001F097F81E484FF48273A3
:10DB0000C0E900A34FF4007B20230024C0E906B342
:10DB10000A23C0E90244C0E90444C0E9084484621D
:10DB2000C36204F07FFE002840F066831248DFF8ED
:10DB3000509053230024C0E900936423CDE90E44A0
:10DB4000CDE91044CDE90A44CDE91544CDE91744A7
:10DB5000CDE919441B9484600461846112E000BF24
:10DB600000200140F40C01208C070120D407012083
:10DB700000000140B40A0120FC06012000380040EA
:10DB800000080040C36005F055FF002840F02E83D8
:10DB90004FF48053C7480E930EA905F069FD002885
:10DBA00040F01E83C34805F0A1FF002840F0128317
:10DBB0000024C0480AA9CDE90A4406F0D7F9002894
:10DBC00040F0028300244FF060083223B9481794D4
:10DBD0000C2215A9CDE91583199406F097F80028B1
:10DBE00040F0EC82B3480C2105F03CFDB248B34B49
:10DBF000036000244FF0FF33CDE90A44CDE90C4423
:10DC0000CDE91544CDE91744CDE90E44CDE91044E2
:10DC1000CDE90844C0E90144199404618461C360FA
:10DC200005F008FF002840F0C3824FF48053A2485B
:10DC30000A930AA905F01CFD002840F0B3829E4813
:10DC400005F082FF002840F0A78200244FF0040C6A
:10DC500050239948199415A9CDE915C3CDE9174466
:10DC600005F0B0FD002840F0918200240123924885
:10DC70000E9422460EA9CDE910440F9306F0E2F867
:10DC8000002840F07D8202248B4804220EA9CDE9B1
:10DC90000E4406F0D7F8002840F06C820024864835
:10DCA00008A9CDE9084406F061F9002840F05C823B
:10DCB0008348844E4FF48273C0E900630225012338
:10DCC000C0E904534FF4007710230024C0E9067321
:10DCD0000A23C0E90244C0E908448462C36204F034
:10DCE000A1FD002840F03A82774878490623C0E930
:10DCF00000134FF420254FF480130024C0E904538F
:10DD00004FF08073C0E902448483836101F09EFD7B
:10DD1000002840F01D826E48DFF8E8B1012303615E
:10DD200080F8303043614FF480330024C0E900B301
:10DD30004FF040524FF010630225CDE91544CDE974
:10DD40001744C0E90A328460047680F82040C46039
:10DD5000C56101F02DFB002840F0F48101234FF054
:10DD60000E0ACDE915A35A48042315A9179301F00B
:10DD7000C5FC002840F0E0810F230224544815A977
:10DD8000CDE9153401F0BAFC002840F0CF815148AC
:10DD9000514BDFF874910024C0E900934FF48043A5
:10DDA000C0E90244C0E90544C0E90744036102F048
:10DDB0004FFF002840F0B4814848DFF850E14FF4AD
:10DDC0008273C0E900E34FF4007808230024C0E91F
:10DDD00006830A23C0E90244C0E90444C0E90844B8
:10DDE0008462C36204F01EFD002840F093813C4829
:10DDF000DFF81CC14FF4E1330024C0E900C30C2359
:10DE0000C0E90244C0E906440461436106F0B2F986
:10DE1000002840F079813348334B036000244FF6EB
:10DE2000FF73CDE91544CDE91744C0E9014404610D
:10DE30008461C36005F0FEFD002840F05F814FF46F
:10DE400080532848159315A905F012FC002840F0CE
:10DE50004F812648264B0224C0E9003440F6FF7368
:10DE6000836004F05FF8002840F03C812148224E96
:10DE70004FF4E1230024C0E900630C23C0E902440D
:10DE8000C0E906440461436106F074F9002840F0DB
:10DE900023811A481A4D53230024C0E900536423F8
:10DEA000846004618461C36005F0C4FD002840F013
:10DEB0000D812FE0FC060120B4060120000C00407B
:10DEC0000C0B012000300140C40B01200064004015
:10DED000AC0C0120700B0120A08601005C0A01201F
:10DEE0004C050120DC05012000400140640B0120AD
:10DEF0000030004004050120004800409405012046
:10DF0000001C00400021014000540040003C004043
:10DF100000100140BE48BF49A7230024C0E90013F8
:10DF20004FF6FF73CDE9154484608461C36005F04A
:10DF300081FD002840F0C4800024B54815A9CDE932
:10DF4000154406F013F8002840F0B4800024202285
:10DF5000214615A8CDE90A44CDE90C44CDE9084491
:10DF6000CDE90E44CDE91044CDE9124414943AF0C1
:10DF7000DFF9A948A94B03604FF6FF73C0E90144DC
:10DF8000C0E904448461C36005F054FD002840F0FA
:10DF90008B804FF48053A0480A930AA905F068FBD0
:10DFA00000287BD19C4805F073FD002870D14023E8
:10DFB0000024994808A9CDE9083405F0D7FF0028C6
:10DFC00060D100249448149422460EA9CDE90E4451
:10DFD000CDE91044CDE9124405F06CFE00284BD188
:10DFE00000244FF400538C481C9415A9CDE9154426
:10DFF000CDE91744CDE9194305F0F8FFB0BB002285
:10E000000621382002F030F8382002F069F80022AA
:10E0100006211D2002F028F81D2002F061F8FFF70C
:10E0200053FA7F480122802102F0F8FD01221146B7
:10E030007C4802F0F3FD012202217A4802F0EEFD55
:10E04000642001F083F906F0F9FC774A7748002153
:10E0500006F020FD764B186006F002FDFEE77148E1
:10E060002246394602F0DAFDFFF7CCBB6D48224666
:10E07000022102F0D3FDC2E76A482246022102F0E3
:10E08000CDFDADE767482246022102F0C7FD98E7C3
:10E0900064480022022102F0C1FD88E761480022A5
:10E0A000022102F0BBFD7DE75E482246022102F01C
:10E0B000B5FD6EE75B482246022102F0AFFD45E761
:10E0C00058482246022102F0A9FD35E7554822466C
:10E0D000022102F0A3FD1DE752482246022102F070
:10E0E0009DFDD6E64F482146002202F097FDBDE691
:10E0F0004C480022022102F091FDAAE6494822463E
:10E10000022102F08BFD9AE646482246022102F0E7
:10E1100085FD80E643482246022102F07FFD66E647
:10E1200040482246022102F079FD45E63D4821465D
:10E13000002202F073FD2AE63A480022022102F092
:10E140006DFD19E637482246294602F067FD05E6CF
:10E1500034482246022102F061FDDCE531482246C6
:10E16000294602F05BFDBFE52E482246022102F05F
:10E1700055FD9DE52B482146002202F04FFD8DE51F
:10E1800028482246022102F049FD7CE52548224626
:10E19000022102F043FD68E522480022022102F03C
:10E1A0003DFD52E51F480022022102F037FD46E501
:10E1B0001C482246022102F031FD36E5194822466C
:10E1C000022102F02BFD0DE516482246022102F045
:10E1D00025FDF7E413480022022102F01FFDE7E4C9
:10E1E00010480022022102F019FDDBE40D4822460E
:10E1F000022102F013FDCBE40A482246022102F07C
:10E200000DFD93E407482246022102F007FD6FE46A
:10E210006C0601200010004024060120000401408B
:10E22000000C0240001002407C110508DDD30008FC
:10E230001C00012054480022022102F0EFFC46E4B9
:10E2400051480022022102F0E9FC38E44E48002245
:10E25000022102F0E3FC2AE44B482246022102F0AC
:10E26000DDFC1CE448482246022102F0D7FC05E40C
:10E2700045480022022102F0D1FCFFF7F5BB4248DD
:10E280000022022102F0CAFCFFF7E8BB3E4822460A
:10E29000022102F0C3FCFFF7D7BB3B482246022114
:10E2A00002F0BCFCFFF7ACBB37482146002202F06D
:10E2B000B5FCFFF79BBB34482246294602F0AEFC72
:10E2C000FFF788BB30482246294602F0A7FCFFF73B
:10E2D00073BB2D480022022102F0A0FCFFF75CBBBB
:10E2E00029480022022102F099FCFFF74FBB264883
:10E2F0002246022102F092FCFFF73EBB2248002298
:10E30000022102F08BFCFFF717BB1F4800220221FD
:10E3100002F084FCFFF705BB1B480022022102F03B
:10E320007DFCFFF7F1BA18480022022102F076FCCA
:10E33000FFF7DFBA14480022022102F06FFCFFF75A
:10E34000CDBA11480022022102F068FCFFF7BBBAE7
:10E350000D480022214602F061FCFFF7A9BA0A48E5
:10E360000022022102F05AFCFFF798BA0648224622
:10E37000022102F053FCFFF784BA0348224602212F
:10E3800002F04CFCFFF748BA0010024008B5024BFF
:10E39000024A1A60FFF710F800400240ADBE0FD0ED
:10E3A00008B5024B024A1A60FFF706F80040024027
:10E3B000EFBEADDE034B02689A4201D01FF0DEBC17
:10E3C00000F0B2BF0014004002480022022102F017
:10E3D00025BC00BF0010024082B00E4B002200920C
:10E3E000596C41F480415964586C00F480400090AD
:10E3F00000980192186C40F0805018641B6C03F078
:10E4000080530193019B0F216FF0010002B001F0D6
:10E410002BBE00BF0038024070B503684B4A8CB079
:10E4200000249342CDE90644CDE9084405460A9408
:10E4300004D0474A93424ED00CB070BD454B019476
:10E440005A6C4548454E42F480725A645A6C02F444
:10E4500080720192019A02941A6B42F004021A63CC
:10E460001A6B02F004020292029A03941A6B42F0B1
:10E4700001021A631B6B03F0010303930F220323B2
:10E4800006A9CDE90623039B02F0ECF90C22032335
:10E490003348089406A9CDE9062302F0E3F9314A8E
:10E4A00074624FF48063C6E9002433614FF48052F4
:10E4B0004FF48043C6E905234FF48073C6E907345F
:10E4C0003046C6E9024401F02BFE00283BD1AE6382
:10E4D000B5630CB070BD1F4B04945A6C1E48224E9D
:10E4E00042F400725A645A6C02F400720492049A64
:10E4F00005941A6B42F004021A631B6B03F00403C9
:10E5000005933022032306A9CDE90623059B02F0DB
:10E51000A9F9164A4FF00073C6E900234FF4806250
:10E520004FF48053C6E90423C6E908444FF48042FF
:10E530004FF480733046C6E90244C6E9062301F071
:10E54000EFFD0028C3D0FFF73FFFC0E700200140E8
:10E550000021014000380240000802404C0C01201C
:10E560000000024070640240EC0B01204064024055
:10E5700030B5234B026889B000249A42CDE90244A9
:10E58000CDE90444069401D009B030BD03F5EA3367
:10E5900000941A6C1B4842F000721A641A6C02F064
:10E5A00000720092009A01941A6B42F008021A63FA
:10E5B0001B6B9FED117B03F00803019302A903235A
:10E5C00009258DED027BCDE90535019A02F04AF966
:10E5D00022460A21132001F047FD132001F080FD9F
:10E5E00022462946142001F03FFD142001F078FD59
:10E5F00009B030BDAFF3008003000000020000004E
:10E6000000640040000C024030B5214B026889B024
:10E6100000249A42CDE90244CDE90444069401D095
:10E6200009B030BD1B4D00942B6B1B4843F0020317
:10E630002B632B6B03F0020300934FF44072122301
:10E64000CDE9022301220323CDE9042302A90423F7
:10E65000009A069302F006F901942B6C43F4001320
:10E660002B642B6C03F400132246082101931F2016
:10E67000019B01F0F9FC1F2001F032FD2246082128
:10E68000202001F0F1FC202001F02AFD09B030BD6E
:10E6900000540040003802400004024008B50268FF
:10E6A0000D4B9A4200D008BD0C4A0D48136C23F460
:10E6B000001313644FF4807102F0F0F908484FF42E
:10E6C000007102F0EBF91F2001F018FDBDE80840D1
:10E6D000202001F013BD00BF00540040003802406C
:10E6E0000004024070B503689C4A8CB00024934239
:10E6F000CDE90644CDE9084405460A9408D0984A75
:10E70000934266D0974A934200F0BC800CB070BD33
:10E71000954B00945A6C954E42F480525A645A6C50
:10E7200002F480520092009A01941A6B42F00102A6
:10E730001A631B6B03F001030193E0220223CDE96E
:10E74000062301988A480322052306A9CDE9092357
:10E7500002F088F8874A74624FF0C063C6E900236C
:10E7600030464FF480624FF48033C6E90244C6E974
:10E770000424C6E90644336201F0D2FC002840F0CC
:10E78000DE807D4C7D49EE644FF0C062C4E900122A
:10E790004FF4806200234021226120464FF48032F2
:10E7A000C4E90213C4E90533C4E90732B5636362FF
:10E7B00001F0B6FC002840F0BF8000220621AC64C6
:10E7C0002320A56301F050FC232001F089FC0CB04C
:10E7D00070BD654B02941A6C694E42F480421A6413
:10E7E0001A6C02F480420292029A03941A6B42F06D
:10E7F00002021A631B6B03F0020303934FF460429F
:10E800000223CDE9062303985E480322052306A9C7
:10E81000CDE9092302F026F85B4A74624FF4806365
:10E820003046C6E90024C6E90244C6E90544C6E903
:10E830000744336101F074FC002840F08380534C9E
:10E840005349EE6440220023A26020464FF48062C8
:10E85000C4E90013C4E90332C4E90533C4E907334A
:10E86000B563636201F05CFC00286ED100220921CF
:10E87000AC642420A56301F0F7FB242001F030FCF8
:10E880000CB070BD384B04941A6C424E42F40042F6
:10E890001A641A6C02F400420492049A05941A6BEA
:10E8A00042F004021A631B6B03F0040305934FF458
:10E8B000E0520223CDE906230598374803220623B8
:10E8C00006A9CDE9092301F0CDFF4FF48063334A57
:10E8D000336130464FF48033C6E90024C6E9024470
:10E8E000C6E90544C6E90743746201F019FC90BB10
:10E8F0002B4C2C49EE6400234022C4E90013A26093
:10E900004FF480614FF480322046C4E90331C4E9FA
:10E910000533C4E90732B563636201F001FCB8B99D
:10E9200000220821AC643320A56301F09DFB332055
:10E9300001F0D6FB0CB070BDFFF746FD3DE7FFF7D9
:10E9400043FD1EE7FFF740FD79E7FFF73DFD8DE74B
:10E95000FFF73AFDE4E7FFF737FDC9E70030014074
:10E9600000380040003C004000380240FC09012013
:10E9700000000240106402409C09012058640240DB
:10E980003C0901200004024058600240DC080120DC
:10E99000706002407C080120000802404060024094
:10E9A0001C0801208860024010B50368764A90B0C8
:10E9B00000249342CDE90A44CDE90C440E9438D0AA
:10E9C000B3F1804F4AD0714A934225D0704A9342A6
:10E9D0006ED0704A934200F093806F4A934200F0E9
:10E9E000A3806E4A934200F0B3806D4A93421ED1D9
:10E9F0006C4B0994196C41F0800119641B6C03F095
:10EA00008003099322460C212C20099B01F02CFB4A
:10EA10002C2001F065FB0AE0624B03941A6C42F073
:10EA200004021A641B6C03F004030393039B10B0ED
:10EA300010BD5C4B0094596C41F0010159645B6C52
:10EA400003F001032246062100931820009B01F0E9
:10EA50000BFB182001F044FB10B010BD03F50E3382
:10EA600001941A6C504842F001021A641A6C02F0C8
:10EA700001020192019A02941A6B42F001021A6398
:10EA80001B6B9FED3D7B03F0010302930AA9012359
:10EA90008DED0A7B0E93029A01F0E4FE22460721D7
:10EAA0001C2001F0E1FA1C2001F01AFB10B010BD8F
:10EAB0003C4B04941A6C3C4842F008021A641A6CED
:10EAC00002F008020492049A05941A6B42F00102C3
:10EAD0001A631B6B9FED2A7B03F0010305930AA9C0
:10EAE00002238DED0A7B059A0E9301F0BBFE2246B0
:10EAF0000621322001F0B8FA322001F0F1FA96E74F
:10EB0000284B0694196C41F0100119641B6C03F03A
:10EB10001003069322460B213620069B01F0A4FA2F
:10EB2000362001F0DDFA82E71E4B0794596C41F064
:10EB3000020159645B6C03F00203079322460C2127
:10EB40002C20079B01F090FA2C2001F0C9FA6EE707
:10EB5000144B0894596C41F4803159645B6C03F494
:10EB600080330893224606211820089B01F07CFA86
:10EB7000182001F0B5FA5AE7020000000200000078
:10EB800001000000020000000000014000080040F9
:10EB9000000C004000100040000401400040014013
:10EBA000001C00400038024000000240000000004D
:10EBB00000B51B4A016889B000239142CDE90233B8
:10EBC000CDE90433069302D009B05DF804FB02F5E9
:10EBD0000D320093106C40F002001064106C00F0D5
:10EBE0000200009000980193136B0E4843F0040359
:10EBF0001363136B9FED087B03F00403019302A9D9
:10EC000002238DED027B019A069301F02BFE09B0E1
:10EC10005DF804FBAFF30080C000000002000000BC
:10EC2000000400400008024000B5174A016889B09E
:10EC300000239142CDE90233CDE90433069302D09B
:10EC400009B05DF804FB02F59C320193136B43F0AD
:10EC500010031363136B9FED0A7B03F01003019302
:10EC600001980A480222012302A98DED027B059238
:10EC7000069301F0F7FD09B05DF804FBAFF30080E7
:10EC8000006A000002000000000001400010024085
:10EC900030B50368364A8BB000249342CDE9044472
:10ECA000CDE90644089404D0324A93422CD00BB0EC
:10ECB00030BD314B00945A6C304842F010025A6417
:10ECC0005A6C02F010020092009A01941A6B42F002
:10ECD00002021A631B6B9FED227B03F00203019378
:10ECE00004A9032307258DED047BCDE90735019A9F
:10ECF00001F0B8FD22462946252001F0B5F925206E
:10ED000001F0EEF90BB030BD1B4B02941A6C1B489E
:10ED100042F480221A641A6C02F480220292029A4F
:10ED200003941A6B42F002021A631B6B9FED0E7B79
:10ED300003F00203039304A9032307258DED047B4D
:10ED4000CDE90735039A01F08DFD2246294627209B
:10ED500001F08AF9272001F0C3F90BB030BD00BFE4
:10ED6000C000000002000000000C000002000000D3
:10ED700000100140004800400038024000040240FA
:10ED800030B5036889B00024B3F1A04FCDE9024447
:10ED9000CDE90444069401D009B030BD1C4D009467
:10EDA0002B6B1C4843F001032B632B6B03F0010317
:10EDB0004FF40072009302A9009B029201F052FDF1
:10EDC0004FF4C0520223CDE9022300220323CDE9F0
:10EDD000042302A90A230F48069301F043FD6B6B3D
:10EDE00043F080036B6301946B6C43F480436B646A
:10EDF0006B6C03F480430E21224601934320019B58
:10EE000001F032F9432001F06BF909B030BD00BFC9
:10EE1000003802400000024070B588B0234B002249
:10EE200002921A6C42F020021A641B6C03F0200359
:10EE30000293054601A903A8029B03F0E7FB069B8A
:10EE4000D3B903F0C3FB0346194A1A4C1A49A2FB73
:10EE500003239B0C013B0022C4E90013204640F22F
:10EE6000E7332261A260A261E36004F0E3FD06469D
:10EE700030B1304608B070BD03F0A8FB4300E3E7B3
:10EE8000204604F0E1FA06460028F2D1372001F0CE
:10EE900027F90F2D01D90126EBE732462946372005
:10EEA00001F0E2F8054B1D60E3E700BF00380240C7
:10EEB00083DE1B433C0D01200014004008000010BD
:10EEC000704700BF08B503480122022101F0A6FEE9
:10EED000FEE700BF00100240FEE700BFFEE700BFF4
:10EEE000FEE700BF704700BF042001F0A5BE00BFD1
:10EEF000014801F041BA00BF7C080120014801F03F
:10EF00003BBA00BF3C090120014801F035BA00BFFF
:10EF1000DC080120014801F02FBA00BF1C080120C5
:10EF2000014800F037BF00BFC40B0120014800F0CA
:10EF300031BF00BFC40B012008B5202001F07CFECA
:10EF4000BDE808404FF4807001F076BE08B5044873
:10EF500004F066FCBDE80840024804F061BC00BF54
:10EF6000D4070120DC050120014804F059BC00BF92
:10EF70008C070120014804F053BC00BF4407012066
:10EF8000014802F031BA00BF700B0120014802F0C5
:10EF90000BBF00BF700B0120014804F0B1B800BFE7
:10EFA0000C0B0120014804F0ABB800BFB40A0120EB
:10EFB000014805F0C3B900BF4C050120014805F028
:10EFC000BDB900BF040501204FF4004001F034BE7C
:10EFD00008B5044804F024FCBDE80840024804F0E9
:10EFE0001FBC00BF2406012094050120014804F045
:10EFF00017BC00BFB4060120014804F081B800BF6F
:10F000005C0A0120014804F00BBC00BF6C06012023
:10F01000014804F005BC00BF3C0D0120014801F08F
:10F02000ABB900BFFC090120014801F0A5B900BF40
:10F03000EC0B0120014801F09FB900BF9C090120A1
:10F04000014801F099B900BF4C0C012000200BF0E1
:10F0500027BA00BF0120704708B536F0FBFF162322
:10F0600003604FF0FF3008BD08B536F0F3FF1623FC
:10F070000360FEE770B5161E07DD0C468D19AFF371
:10F08000008004F8010BA542F9D1304670BD00BFE5
:10F0900070B5161E07DD0C468D1914F8010BAFF381
:10F0A0000080A542F9D1304670BD00BF4FF0FF305F
:10F0B000704700BF4FF400534B600020704700BF03
:10F0C00001207047002070470C490D4A0B6810B5AD
:10F0D0000C4C121B2BB11844904207D808601846FC
:10F0E00010BD094B0B6018449042F7D936F0B2FFBF
:10F0F0000C2303604FF0FF33184610BD840D012030
:10F100000000022000040000603101201249134B6E
:10F11000D1F8882042F4700210B4C1F888201A682F
:10F120000F4C002042F001021A6098601A6822F029
:10F13000847222F480321A605C601A6822F48022A1
:10F140001A60D8605A6F4FF0006442F080725A67BC
:10F150008C605DF8044B704700ED00E00038024021
:10F16000103000240000000010B560B104460C20EF
:10F170001EF06AFB206058B19FED077B00230372ED
:10F1800080ED007B10BD36F065FF1623036010BDD7
:10F1900072B6FFF719F9FEE700000000000000005A
:10F1A0001EF054BB08B5A8B1037A012B0ED85A1C27
:10F1B0000272EFF311824FF0500181F31188BFF317
:10F1C0006F8FBFF34F8F40F8232008BD72B6FFF753
:10F1D000FBF8FEE772B6FFF7F7F8FEE708B570B187
:10F1E000037A013BDBB2012B037204D850F82330C1
:10F1F00083F3118808BD72B6FFF7E6F8FEE772B632
:10F20000FFF7E2F8FEE700BF08B528B3BFF35B8F56
:10F210000378BFF35B8F0BB1002008BD1C4B1A7A3B
:10F22000012A1DD8511C1972EFF311814FF0500CB7
:10F230008CF31188BFF36F8FBFF34F8F43F8221009
:10F24000BFF35B8F0278BFF35B8F8AB943785BB9FA
:10F2500001234370184608BD72B6FFF7B5F8FEE704
:10F2600072B6FFF7B1F8FEE772B6FFF7ADF8FEE74A
:10F270001A7A013AD2B2012A1A7204D853F822300B
:10F2800083F31188C8E772B6FFF79EF8FEE700BF68
:10F29000880D012008B598B143786BB10C4A002362
:10F2A0004370137A013BDBB2012B13720CD852F876
:10F2B000233083F3118808BD72B6FFF785F8FEE7A7
:10F2C00072B6FFF781F8FEE772B6FFF77DF8FEE74A
:10F2D000880D012008B548B1BFF35B8F0122027091
:10F2E000BFF35B8FBDE80840FFF7D4BF72B6FFF7EE
:10F2F0006BF8FEE708B50B4B1A6842F400721A600F
:10F300001A6842F480621A601A6842F480721A60C5
:10F31000032000F097FE0420FFF77EFDFFF75CF866
:10F32000002008BD003C0240034A044B11681B78D2
:10F330000B441360704700BFB80D0120040000109B
:10F34000014B1868704700BFB80D012038B504465E
:10F35000FFF7F6FF631C054602D0044B1B781C44E4
:10F36000FFF7EEFF401BA042FAD338BD04000010A7
:10F37000014B1868000C7047002004E0024B18682D
:10F38000C0F30B00704700BF002004E0014BD3F82E
:10F39000100A70470070FF1F014BD3F8140A704722
:10F3A0000070FF1F014BD3F8180A70470070FF1F51
:10F3B000002800F09E8038B5056C04463DB1236CF2
:10F3C000DB060CD5002384F83C30012038BDFFF764
:10F3D00023F86564236C84F83C50DB06F2D4236C7C
:10F3E000474A23F4885323F0020343F002032364C3
:10F3F0005168236821F440315160516860680143CD
:10F4000051605A682069A16822F480725A605A6873
:10F4100042EA00225A605A68E06822F040725A605C
:10F420005A680A435A609A68A16A22F400629A6094
:10F430009A6802439A60334A91429A6851D022F006
:10F440007062E06A9A609A68114399609A6822F043
:10F4500040529A609A6802439A609A6822F00202C7
:10F460009A609A68217E42EA41029A6094F82020CC
:10F47000002A40D05A68616A42F400625A605A68B1
:10F4800022F460425A605A68013942EA41325A60B5
:10F49000DA6AE16922F47002DA62DA6A013942EA70
:10F4A0000152DA629A68616922F400729A609A687D
:10F4B00094F8300042EA40229A609A6822F480620E
:10F4C0009A609A68002042EA81229A606064236C04
:10F4D00023F0030343F001032364002384F83C304A
:10F4E00038BD22F070629A609A6822F040529A60A9
:10F4F000B3E7012070475A6822F400625A60C7E7F8
:10F50000002301400100000F70B5054690F83C0053
:10F5100082B000230128019300F08D802E681346ED
:10F52000012285F83C20B268D40714D4B26842F0B6
:10F530000102B260434A1068434AA2FB0020800CDB
:10F5400000EB40000190019A2AB1019C013C01941A
:10F5500001980028F9D1B268D00503D5B26822F429
:10F560008072B260B268D2074DD5286C20F4E0609A
:10F5700020F0010040F4807028647268540505D5BD
:10F580002A6C22F4405242F480522A642A6CA86BFE
:10F5900012F480521CBF6A6C22F006026A640022D8
:10F5A00085F83C200A462949C16329490164294953
:10F5B000C1646FF022013160716841F08061716057
:10F5C000B16841F48071B16006F14C0100F03CFE7D
:10F5D000214B5A68D00621D12A6820498A4209D095
:10F5E00001F580718A4229D01D498A4213D15B6896
:10F5F000DB0610D4936813F0405F0CD1936843F09E
:10F600008043936007E02B6C43F010032B646B6C1A
:10F6100043F001036B64002002B070BD0F4A2B68F9
:10F620009342F8D19A6812F0405FF4D19A6842F0A0
:10F6300080429A60EFE7022002B070BD5B68D90695
:10F64000D8D0E8E70000001083DE1B4391F60008E5
:10F6500069F6000879F60008002301400020014007
:10F6600000220140704700BF08B5806BFFF7FAFF2A
:10F6700008BD00BF704700BF806B08B5402303641E
:10F68000436C43F004034364FFF7F4FF08BD00BF7D
:10F69000836B1A6C12F0500F10B51A6C23D142F420
:10F6A000007219681A648A6812F0405F17D11A7ED6
:10F6B000AAB9CA6A12F4700F02D08A6850050ED433
:10F6C0004A6822F020024A601A6C22F480721A649E
:10F6D0001A6CD10403D41A6C42F001021A64184661
:10F6E0001EF054FE10BDD20604D49B6BBDE8104042
:10F6F000DB6C18471846FFF7BDFF10BD70B590F8DA
:10F700003C3082B00246012B4FF00000019000F027
:10F710009380012382F83C300D6813688C68092DB2
:10F72000A8B228D81E6905EB450E4FF0070C0CFA5D
:10F730000EFC26EA0C061E611E6904FA0EF4344320
:10F740001C614C68062C04EB84012AD85C6B0539DB
:10F750004FF01F0C88400CFA01F124EA01015963B3
:10F76000596B0843586336498B422BD0002082F8EE
:10F770003C0002B070BD00EB400CDE68ACF11E0C2A
:10F780004FF0070E04FA0CF40EFA0CFC26EA0C06F5
:10F79000DE60DE683443DC604C68062C04EB8401D8
:10F7A000D4D90C2C34D81C6B23391F26884006FA78
:10F7B00001F124EA01011963196B08432049186318
:10F7C0008B42D3D1122D30D0A5F11003012BCDD80F
:10F7D0001C494B68102D43F400034B60C6D11A4BF3
:10F7E00001F146711B6801F52E3101F28331A1FB55
:10F7F00003139B0C03EB83035B000193019B002B22
:10F80000B4D0019B013B0193019B002BF9D1ADE7E3
:10F81000DC6A41391F26884006FA01F124EA010119
:10F82000D962D96A0843D8629DE7D1F8043343F41A
:10F830008003C1F8043399E7022002B070BD00BF15
:10F8400000200140002301400000001000287BD070
:10F8500038B590F820300446002B72D02268136827
:10F8600043F001031360FFF76BFD054604E0FFF76B
:10F8700067FD401B0A285BD823685A68D107F6D574
:10F880001A6822F002021A60FFF75AFD054604E0EA
:10F89000FFF756FD401B0A284AD823685A6892078A
:10F8A000F6D4227E012A1A680CBF42F0800222F0B0
:10F8B00080021A60627E012A1A680CBF42F0400280
:10F8C00022F040021A60A27E012A1A680CBF42F0A0
:10F8D000200222F020021A60E27E012A1A680CBF80
:10F8E00022F0100242F010021A60227F012A1A68E8
:10F8F0000CBF42F0080222F008021A60627F012A5F
:10F900001A680CBF42F0040222F004021A60D4E923
:10F910000220216902430A43606961680243013998
:10F920000A4300200121DA61606284F8201038BDAA
:10F93000636A052243F40033636284F820200120C7
:10F9400038BDFEF715FE89E70120704790F82020AA
:10F95000013A012A06D9426A034642F48022012074
:10F960005A627047404BD3F800220120024330B462
:10F97000C3F80022D3F8002222F47C52C3F80022FC
:10F98000D3F800224C6A42EA0422C3F800224A69F2
:10F9900002F01F04A040D3F81C4224EA0004C3F87C
:10F9A0001C42CD69C443002D45D1D3F80C522540EB
:10F9B000C3F80C52D200CD688B8802F1804202F568
:10F9C000C84243EA0543C2F840328D680B8843EAD7
:10F9D0000543C2F844328B69234A33BBD2F8043260
:10F9E0002340C2F804320B69C3B91F4BD3F8142269
:10F9F0001440C3F814420B6A012B05D11A4AD2F8FD
:10FA00001C320343C2F81C32174AD2F8003223F0EA
:10FA10000103002030BCC2F800327047124AD2F80D
:10FA200014320343C2F81432E5E7D2F80432034338
:10FA3000C2F80432D7E7012DCDD1D3F80C520543DB
:10FA4000C3F80C52D2000D688B8802F1804202F597
:10FA5000C84243EA0543C2F840328D688B8943EAC5
:10FA60000543C2F84432B6E70064004038B590F868
:10FA70002030012B044605D0436A43F4002343623F
:10FA8000012038BD0268022380F82030136823F07B
:10FA900001031360FFF754FC054604E0FFF750FC38
:10FAA000431B0A2B07D823685B6813F00103F5D1C9
:10FAB0006362184638BD636A052243F4003363620B
:10FAC00084F82020DCE700BF38B590F82030022B06
:10FAD000044605D0436A43F480134362012038BDD5
:10FAE0000268136843F001031360FFF729FC054621
:10FAF00004E0FFF725FC431B0A2B0CD823685A6847
:10FB0000D207F6D51A68012122F002021A6084F8A1
:10FB10002010002038BD636A052243F4003363627D
:10FB200084F82020DAE700BF30B490F820C00568E0
:10FB30000CF1FF3CBCF1010FAC6839D814F0E05F68
:10FB400006D1436A43F400134362012030BC70477E
:10FB5000C4F301640120A04018608B686BB3C868CF
:10FB60000343486843EAC00304F1180000012B5026
:10FB700005EB041C0B69CCF884310B7D012B4FEA9B
:10FB8000041105D1DCF8843143F48073CCF884315E
:10FB90006B185168C3F88C111268C3F88821DCF81F
:10FBA000803143F00103002030BCCCF88031704735
:10FBB000436A43F480234362C7E7CB68086843EA9B
:10FBC000405004F118031B01E850D1E790F82020C1
:10FBD000013A012A034605D9426A42F480220120F3
:10FBE0005A627047CA0704D50068826842F08002F2
:10FBF0008260880704D51868826842F400428260F7
:10FC00004A0704D51A68936843F400039360002000
:10FC1000704700BF90F82030013B012B01D9002034
:10FC20007047036898689A689B681201C0F3806007
:10FC300048BF0130DB00F3D50130704790F820C099
:10FC40000CF1FF3CBCF1010F6BD870B5046841B9F1
:10FC5000E568AD0708D1436A43F40013436201200D
:10FC600070BD2569AE07F6D004EB011C4FEA011EFA
:10FC7000DCF8B05105F004059560002D57D0DCF894
:10FC8000B051ED085560DCF8B05105F00205D560C3
:10FC9000DCF8B4512D0758BFDCF8B451DCF8B4617E
:10FCA00054BF05F00F05082515617444DCF8B45104
:10FCB000C6F3072696612D0CD4F8B86155611E7005
:10FCC00002687244D2F8B821120A5A70026872446B
:10FCD000D2F8B821120C9A7002687244D2F8B82196
:10FCE000120EDA7002687244D2F8BC211A710268EE
:10FCF0007244D2F8BC21120A5A7102687244D2F8D6
:10FD0000BC21120C9A7102687244D2F8BC21120E06
:10FD1000DA71026881B9D36843F02003D360002010
:10FD200070BD436A43F48023436201207047DCF8CE
:10FD3000B0516D0D1560A6E7136943F02003136100
:10FD4000EDE700BF90F82030013B012B01D90020E6
:10FD50007047036819B9D86800F003007047186944
:10FD600000F00300704700BF90F82020013A012AFC
:10FD7000034605D9426A42F4802201205A62704744
:10FD8000026853690B43002053617047704700BFFE
:10FD9000704700BF2DE9F84F03685C69D3F8048011
:10FDA0009F68D3F80CB0D3F81090D3F818A014F0D3
:10FDB000010605461FD0F90700F19B800026F905D2
:10FDC0000BD52B684FF480729A60BA0500F1DE8083
:10FDD0007B0540F1D18046F40056F9030BD52B6822
:10FDE0004FF480329A60BA0300F1D4807B0340F173
:10FDF000C88046F40046210702D51BF0100F72D1CF
:10FE0000620702D51BF0080F7ED1A30704D52B682B
:10FE1000DB689F0740F09880600602D519F0100F4C
:10FE20005BD1A10602D519F0080F74D1E20603D503
:10FE30002B681B699B077CD1A70302D518F0100F14
:10FE40007BD1E00302D518F0080F6BD1210440D517
:10FE500018F0040F2B683AD0E20544BF0AF0010203
:10FE60001643A70574D4610504F400622BD51AF07B
:10FE7000040F28D046F00406002A77D01AF0700A42
:10FE800074D0BAF1400F00F0A88000F28780BAF178
:10FE9000200F00F0BD80BAF1300F00F0B080BAF151
:10FEA000100F40F095809A69042122F070029A6147
:10FEB00046F0080659606B6A334328466B621EF0B1
:10FEC0000EF9BDE8F88F12B11AF0700AD9D10422E8
:10FED0005A60002EEFD1BDE8F88F2B68102246F44F
:10FEE00080661A619DE72B68102246F40076DA607E
:10FEF00086E701229A60BA0735D47B0739D43E07DA
:10FF00005BD54FF480565AE72B680822DA60284602
:10FF10001EF025F879E72B6808221A6128461EF0A2
:10FF200036F883E72B6808225A602846FFF730FF2F
:10FF30008CE728461DF0C4FF7EE72B6810225A602C
:10FF40002846FFF723FF7CE728461DF06DFF63E797
:10FF50001AF0020F87D0600546F0020604F4006232
:10FF600085D41AB18AE71EF02AF827E704225A60DE
:10FF7000A1E74FF4006622E7380525D546F4804610
:10FF80002BE738031CD546F4803634E728461EF0AC
:10FF90002EF822E728461EF042F82CE7BAF1500F5F
:10FFA00024D0BAF1600F13D19A69042122F07002B3
:10FFB0009A6146F4807659607DE71EF048F8FDE6C8
:10FFC00028461EF074F816E728461EF058F804E795
:10FFD0009A6922F070029A6179E79A69042122F005
:10FFE00070029A6146F04006596064E79A690421FC
:10FFF00022F070029A6146F0800659605BE79A69C8
:020000040801F1
:10000000042122F070029A6146F02006596052E7FE
:100010009A69042122F070029A6146F01006596034
:1000200049E700BF90F82020013A012A034605D98C
:10003000426A42F4802201205A62704700205862CE
:10004000704700BF0749CA6803024FF6FF0003F478
:10005000E0630240134343F0BF6343F40033CB60DB
:10006000704700BF00ED00E01B4BDB68C3F30223C9
:1000700000B5C3F1070EBEF1040F03F1040C28BF55
:100080004FF0040EBCF1060F1CD9A3F1030C4FF086
:10009000FF3303FA0CF322EA03024FF0FF3303FAB3
:1000A0000EF321EA030303FA0CF313431B010028A8
:1000B000DBB20ADB00F1604000F5614080F80033FC
:1000C0005DF804FB00229446E7E7044A00F00F00C5
:1000D000024413765DF804FB00ED00E0FCEC00E068
:1000E000002807DB044A4109012300F01F00834078
:1000F00042F82130704700BF00E100E000280CDB2F
:100100004309064900F01F0020330122824041F8D4
:100110002320BFF34F8FBFF36F8F704700E100E0E4
:1001200038B50446FFF70CF9002C6BD02368002289
:10013000022184F8351084F834201A6822F0010274
:1001400005461A6005E0FFF7FBF8431B052B37D87F
:1001500023681A68D107F6D4D4E90120E168024384
:100160000A43D4E90451A0692A430A43E1691D689E
:1001700002430A4331492940256A2A430A43616AF6
:10018000042924D01A605A6922F007021143D8B218
:100190002B4A59611038A2FB0052120929496FF30A
:1001A0000903895CE1655F2888BF04333F228A40E8
:1001B000A36500209A600123606584F8353038BD5E
:1001C00003232022626584F83530184638BDD4E90F
:1001D0000B512943114319605969A26A21F00701A3
:1001E000114341F00401002DD1D068B9012A21D07A
:1001F00032F00202CBD1EA01C9D540220123626567
:1002000084F83530012038BDB0F5005F04D0022AF3
:10021000F3D9032AEFD0BAE7032AB8D801A050F8DF
:1002200022F000BFFB010108F7010108FB010108F2
:1002300035020108B5F1C07FA9D1DEE73F8010F09B
:10024000ABAAAAAAB811050870B490F83440856D1D
:10025000012C0AD090F835404FF0010C644580F82D
:1002600034C005D0002380F83430022070BC7047C1
:10027000022680F83560046800264665266826F464
:100280008026266063608368402B0EBFA260A16059
:10029000E260C26D08BFE1603F239340AB6023681A
:1002A000026C43F0160323601AB1236843F008037D
:1002B0002360236843F001030020236070BC704773
:1002C00070B50446866DFFF73BF894F83530022B85
:1002D00006D080236365002384F83430012070BD8C
:1002E00023681A6822F016021A605A6922F0800206
:1002F0005A61226C054642B31A6822F008021A605D
:100300001A6822F001021A6005E0FFF719F8431B92
:10031000052B10D823681B6813F00103F5D1E16D9C
:100320003F228A40184601210023B26084F835102C
:1003300084F8343070BD032320226265184684F8A7
:100340003530002384F8343070BDA26C002AD3D13C
:10035000D6E700BF90F83530022B03D080234365E9
:10036000012070470268052380F83530136823F0B8
:100370000103002013607047F0B583B0674A876DB2
:10038000166800230193C36D3D6808229A402A42F3
:10039000044603D001680868400778D401229A40D7
:1003A0002A4203D02168496908066AD404229A4087
:1003B0002A4203D02168096889075CD410229A4038
:1003C0002A4203D021680868000741D420229A40BD
:1003D0002A4214D021680868C00610D5BA6094F883
:1003E0003520052A63D00B6813F4802F0B687ED06C
:1003F000190340F18980E36B0BB120469847636D88
:1004000023B3636DDA071AD522684549052384F8BA
:1004100035301368A1FB061623F00103B60A1360FA
:1004200002E01368DB0704D5019B0133B34201935B
:10043000F7D90122002384F8352084F83430E36CA6
:1004400023B1204603B0BDE8F040184703B0F0BD2B
:10045000BA600A6812F4802F0A6822D1D20503D448
:100460000A6822F008020A60226C002AAED02046F8
:100470009047E36DAAE7BA60626D42F004026265DC
:100480009CE7BA60626D42F0020262658EE708681E
:1004900020F004000860BA60626D42F001026265FB
:1004A0007CE71103E0D5A26C002AE0D18EE70A6850
:1004B00022F016020A604A6922F080024A61226C28
:1004C0003AB30A6822F008020A603F2202FA03F3F4
:1004D000216DBB600122002384F8352084F834307C
:1004E0000029B3D0204603B0BDE8F040084713F41C
:1004F000807380D10A6822F010020A60012284F819
:10050000352084F8343076E7636C002B7FF475AFC8
:1005100075E7A26C002AD4D1D7E700BF0000001015
:10052000B5814E1B90F83500704700BF1B4BDA6851
:10053000D10605D51A49CA6910200243CA61D8609C
:10054000164BDA68920606D51549CA69202042F092
:100550000802CA61D860114BDA68500606D5104906
:10056000CA69402042F00402CA61D8600B4BDA68C5
:10057000110606D50A49CA69802042F00202CA6102
:10058000D860064BDA68920706D50549CA69022089
:1005900042F02002CA61D860704700BF003C0240B0
:1005A000BC0D0120064B1A69002A01DB00207047B0
:1005B0000449054A59605A601869C00F704700BF66
:1005C000003C024023016745AB89EFCD034A136924
:1005D00043F0004300201361704700BF003C02401D
:1005E000144B70B500220446DA61FEF7A9FE124EE4
:1005F0000546F368D90305D5631C0FD10E4AD368AD
:10060000D803FCD40C4BDA68D20744BF0122DA606D
:10061000094BD86810F0F20008D170BD24B1FEF784
:100620008FFE401BA042E4D9032070BDFFF77EFF80
:10063000012070BDBC0D0120003C02402DE9F041BD
:10064000304D95F818C0BCF1010F32D080461C46E1
:100650004CF2503001230E4617462B76FFF7C0FFB1
:1006600018B100232B76BDE8F081274BB8F1000FBD
:1006700022D0B8F1010F35D01A6922F440721A6104
:10068000B8F1020F1A6924D042F440721A611A6953
:1006900042F001021A613760BFF36F8F74604CF251
:1006A0005030FFF79DFF184A136923F001031361CF
:1006B000D7E70220BDE8F081196921F44071196182
:1006C000196919611969FAB241F0010119613270B1
:1006D000E5E742F400721A611A6942F001021A61F8
:1006E0003760DCE7196921F440711961196941F437
:1006F000807119611969BAB241F001011961328042
:10070000CDE700BFBC0D0120003C02400D4B1A6933
:1007100022F440721A611A69022994BF09024FF447
:1007200040710A431A611A6922F0F8021A611A69C3
:1007300042EAC00040F0020018611A6942F48032B7
:100740001A617047003C0240144B1A6891050FD59E
:100750001A6822F400721A601A6842F400621A6081
:100760001A6822F400621A601A6842F400721A6071
:100770000A4B1A6852050FD51A6822F480621A6073
:100780001A6842F480521A601A6822F480521A6081
:100790001A6842F480621A60704700BF003C024051
:1007A0002DE9F8432D4F3B7E012B38D00123044621
:1007B0004CF2503088463B76FFF712FF064648BBA6
:1007C0004FF0FF33C8F800302368012B2BD0D4E959
:1007D00002532B44AB421BD9DFF8849005E0D4E9E7
:1007E000022301351344AB4212D9217C2846FFF77E
:1007F0008DFF4CF25030FFF7F3FED9F8103023F0A4
:10080000FA03C9F810300028E9D0C8F800500646AD
:10081000FFF79AFF00233B763046BDE8F8830226B7
:100820003046BDE8F8830E4D23692A6922F44072F0
:100830002A612A6942F004022A612A691B029BB2DA
:10084000134343F480332B614CF25030FFF7C8FE62
:100850002B6923F0040306462B61D9E7BC0D012068
:10086000003C02402DE9F04F00230C68DFF814A291
:1008700085B04FF0010B894603E00133102B00F0E7
:1008800092800BFA03F202EA0408A243F5D1D9F8E8
:10089000041001F0030C5A0003250CF1FF369540BB
:1008A000012E6FEA050540F28180BCF1030F40F094
:1008B000D98006680CFA02F235402A4311F4403F11
:1008C0000260DAD000220392DAF8442042F4804237
:1008D000CAF84420DAF8442002F480420392039AD2
:1008E00023F0030202F1804203F003060F2702F512
:1008F0009C32B60007FA06FC5F4F9568B84225EABD
:100900000C0527D007F58067B84200F087805B4F61
:10091000B84200F08980DFF870C1604500F08A803D
:10092000DFF868C1604500F08B80DFF864C1604586
:1009300000F08C80DFF85CC1604500F08D80DFF84E
:1009400058C160450CBF4FF0070C4FF0080C0CFA73
:1009500006F6354395604A4A9268CE026FEA08056A
:10096000474E54BF2A4048EA0202B260F268444E41
:100970008F0254BF2A4048EA0202F26072688E0376
:100980003F4E54BF2A4048EA020272603268C903EF
:1009900003F101033A4954BF2A4048EA0202102BEE
:1009A0000A607FF46EAF05B0BDE8F08F866806EA96
:1009B000050ED9F80C60964046EA0E068660466839
:1009C00026EA080EC1F300169E4046EA0E0646606F
:1009D000C66806EA050ED9F80860964046EA0E0693
:1009E000BCF1020FC6607FF464AFDE0800EB860640
:1009F0000196376AD9F81060009703F0070E4FEAA6
:100A00008E0E0F2706FA0EF607FA0EFE009F27EA53
:100A10000E0E019F46EA0E063E624AE74FF0010CB9
:100A20000CFA06F6354395E74FF0020C0CFA06F681
:100A300035438FE74FF0030C0CFA06F6354389E790
:100A40004FF0040C0CFA06F6354383E74FF0050C23
:100A50000CFA06F635437DE74FF0060C0CFA06F665
:100A6000354377E7C66806EA050ED9F80860964070
:100A700046EA0E06C6601CE700000240000802407D
:100A8000003C014000380240000C024000100240CF
:100A90000014024000180240001C02402DE9F04FF3
:100AA0000023534F83B001264FF00F094FF0030A84
:100AB00002E00133102B76D006FA03F232EA010489
:100AC00002EA010CF5D123F0030505F1804503F09E
:100AD0000304A40005F59C3509FA04F80194454C7B
:100AE000D5F808E0A04208EA0E0E20D004F5806494
:100AF000A0425BD0404CA0425CD0404CA0425FD0B2
:100B00003F4CA04262D0DFF8FCB0584564D0DFF81B
:100B1000F8B0584566D0DFF8F4B0019C58450CBFDA
:100B20004FF0070B4FF0080B0BFA04F400E0002421
:100B3000A64513D13C6824EA0C043C607C6824EA96
:100B40000C047C60FC6824EA0C04FC60BC6824EAA9
:100B50000C04BC60AC6824EA0804AC6004685D0066
:100B60000AFA05F54FEAD30C24EA050400EB8C0CD5
:100B7000046003F00704DCF820E0A40009FA04F4A0
:100B80002EEA0404CCF82040C46824EA0504C460BA
:100B9000446824EA020242608268013322EA0502C4
:100BA000102B826088D103B0BDE8F08F019C06FA5B
:100BB00004F4BDE7019C4FF0020B0BFA04F4B7E715
:100BC000019C4FF0030B0BFA04F4B1E7019C4FF0CA
:100BD000040B0BFA04F4ABE7019C4FF0050B0BFA86
:100BE00004F4A5E7019C4FF0060B0BFA04F49FE711
:100BF000003C01400000024000080240000C02409E
:100C0000001002400014024000180240001C024084
:100C10000369194214BF01200020704702B909047A
:100C200081617047436901EA030221EA030141EA55
:100C300002418161704700BF044A5169014200D1FD
:100C4000704708B550611DF0ABF808BD003C01408D
:100C5000002800F0B88070B590F83D30044603F0ED
:100C6000FF02002B00F098802368242284F83D20A6
:100C70001A6822F001021A601A6842F400421A60EF
:100C80001A6822F400421A6001F0A0FC4F4B65681C
:100C90009D424FD84E4B98427CD94E4B6A00A3FBE5
:100CA0000035431EB3FBF2F32268516821F03F0187
:100CB00041EA95415160116A4FEA954C0CF1010CE3
:100CC00021F03F0141EA0C011162D16940F6FC704C
:100CD000013321F44F41034221F0FF0161D104238C
:100CE0000B43D361D4E907301168034321F0C001FD
:100CF0000B4313609168D4E9030321F403410343D8
:100D000021F0FF010B439360D4E90530D168034320
:100D100021F0FF010B43D3601168002341F0010172
:100D200020201160236484F83D00236384F83E3062
:100D3000184670BD284B98422CD92268254B274E67
:100D4000A3FB003C431E506820F03F0040EA9C405B
:100D500050604FEA9C414FF4967000FB01F1A6FBF6
:100D60000161106A890920F03F00013101431162DD
:100D7000D169A06821F44F4121F0FF01A0B905EB32
:100D80004505B3FBF5F30133C3F30B03CBB143F4D8
:100D90000043A5E7012070BD80F83C20FDF734FC3E
:100DA00062E7C3F30B039BE705EB850505EB8505C0
:100DB000B3FBF5F30133C3F30B0313B143F4404327
:100DC0008EE701238CE70120704700BFA086010059
:100DD0007F841E0083DE1B43FF083D00D34D62105D
:100DE000B0B10268242310B580F83D30136823F0B9
:100DF000010304461360FDF751FC0023236484F8CB
:100E00003C3084F83D30236384F83E30184610BDF2
:100E10000120704710B582B08446002001909CF8F4
:100E20003D00202824D12F482F4C0068C008A4FB87
:100E30000040000A00EB800000EB8000019004E01D
:100E4000DCF80040A069800715D5019C013C0194A5
:100E500001980028F4D12023CCF830008CF83D30E4
:100E60008CF83E00DCF8403043F02003CCF84030F2
:100E7000022002B010BD9CF83C000128F8D0206888
:100E8000C00703D4206840F00100206020684FF0C4
:100E9000220E20F4006020608CF83DE000204FF02E
:100EA000100E8CF83EE0CCF82420CCF840000F4A1D
:100EB000ACF82A30BCF82A308CF83C00CCF82C2056
:100EC000CCF84410ACF82830636843F4E063636006
:100ED000236843F480632360236843F480732360B2
:100EE00002B010BD0000001089B5F8140000FFFF2B
:100EF00070B582B08446002001909CF83D00BDF89A
:100F00001CE0202824D13048304C0068C008A4FBE5
:100F10000040000A00EB800000EB8000019004E03C
:100F2000DCF80040A069850715D5019C013C0194BF
:100F300001980028F4D12023CCF830008CF83D3003
:100F40008CF83E00DCF8403043F02003CCF8403011
:100F5000022002B070BD9CF83C000128F8D0206847
:100F6000C00703D4206840F0010020602068184EBC
:100F700020F4006020600698CCF8240021208CF832
:100F80003D00002540208CF83E00CCF84050ACF8E5
:100F90002AE0BCF82A00CCF82C60CCF84410CCF83D
:100FA0004820CCF84C30CCF850502368ACF82800DE
:100FB00043F4807323608CF83C506368284643F404
:100FC000E063636002B070BD0000001089B5F814E2
:100FD0000000FFFFF0B482B00024019490F83D407F
:100FE000BDF81CC0202C20D12D4C2E4D2468E408C7
:100FF000A5FB0454240A04EB840404EB8404019448
:1010000003E00468A569AE0713D5019C013C019477
:10101000019C002CF5D12023046380F83D3080F83A
:101020003E40036C43F020030364022002B0F0BC96
:10103000704790F83C50012DF7D02568ED0703D498
:10104000256845F0010525602568174F25F40065E2
:101050002560069D4562222580F83D5000264025EA
:1010600080F83E500664A0F82AC0458DC7624164EE
:101070008264C36406652268ADB242F4806205856D
:101080002260226842F48072226080F83C601DB1C8
:10109000636843F4E0636360002002B0F0BC704713
:1010A0000000001089B5F8140000FFFF704700BF72
:1010B000704700BF704700BF704700BF90F83D20E9
:1010C000016D034659B9C26C0168012A826C1CD0BB
:1010D000C2F307220A61026D013202657047016D99
:1010E00001290AD0016D022915D003685A69120638
:1010F00002D500221A6170477047826C0168D2B233
:101100000A61026D013202657047D2B20A61026D56
:10111000023202657047D2B2222A1FD0418D89B2B5
:10112000C1B9418D89B20029E6D1212AE4D10268F2
:1011300010B5546824F4E0645460146844F40074F6
:1011400014602022016380F83D2080F83E101DF0DD
:1011500060F810BD212A0AD05B8D704701680A68CB
:1011600042F480720A60026D013202657047416A82
:10117000026811F8010B10615A8D5962013A92B25E
:101180005A857047704700BF70B53A4B3A4A1B68A2
:10119000806B82B0DB080021A2FB032301911B0AB4
:1011A00090F83D10026803EB8303C3EBC303C9B29D
:1011B000019305E0019B013B019313689B0506D554
:1011C000019B002BF6D1036C43F020030364D0E9AC
:1011D0000D4344B30025E563F3B11668DD6326F4DF
:1011E000806616604585256500241C65136823F01C
:1011F0000103136090F83D30602B29D001F02801E5
:10120000282918D02022002380F83D2080F83E3085
:101210001DF003F802B070BD156825F480651560F7
:1012200043852365E2E7F3B11568DC6325F4806547
:1012300015604485D8E7136843F001031360136811
:10124000002443F480631360046380F83D10DFE7FB
:101250000023202280F83D2080F83E300364FFF711
:1012600091FF02B070BD146824F48064146043855B
:10127000BCE700BF0000001089B5F81410B590F865
:101280003D2090F83E30102B0446D2B239D0D9B26E
:10129000402936D002F02801282923683CD059681B
:1012A000080507D4602A05D02021002284F83D10CB
:1012B00084F83E20002222635A6812F4006233D17F
:1012C00094F83D10602974D05A69500605D5626AB9
:1012D0001B691370636A0133636220461CF09DFF33
:1012E000236C190704D02268536823F4E063536029
:1012F00094F83D30226C5207DBB201D5282B2ED05A
:1013000010BD222AC6D123681A6822F400621A602E
:101310005A681205C8D5CDE70022226384F83D1033
:101320005A6812F40062CBD05A68606B22F40062F3
:101330005A6090F83530012B1ED0294B0365FFF71A
:1013400009F80028CCD02268606B1368202123F0B4
:101350000103136084F83D10036D9847C0E7002334
:101360002049E16220222363204684F83D2084F84E
:101370003E30FFF7A1FE10BDA06B194B0365FEF7D1
:10138000E9FF0028ACD023685A69510606D5626A85
:101390001B691370626A2368013262621A68A06B6B
:1013A00022F0010220211A6084F83D10036D984755
:1013B00096E7202184F83D1022645A69520606D52A
:1013C000626A1B691370626A2368013262621A687A
:1013D00022F0010220461A60FFF7D4FE80E700BF2A
:1013E000891101080000FFFFF0B503685F68C56A56
:1013F00090F83E2090F83D10102A04468FB0C9B2F4
:10140000D0B223D0402821D0226C002A00F0D7800F
:101410005A69002012F0020500F09780BD0540F1E6
:101420009680226C02B1986994F83D2002F028025F
:10143000282A00F04F8200220C9259690C919B6976
:101440000C930C9B84F83C200FB0F0BD9E695A6948
:1014500012F0010F20D1B5F52A0FF5D0B5F12A4FC2
:10146000F2D012F0080540F0D78012F0020F36D00B
:1014700017F4007F33D094F83E20E06A266B94F88E
:101480003D102229D2B200F0FE810A955A690A92D3
:101490009B690A930A9BD7E7BD0520D5E26AB2F59E
:1014A0002A0F00F01482E26AB2F12A4F04BF082228
:1014B000E26294F83E20402A00F002822269B2F5EE
:1014C000804F00F0C681226D002A40F01782626CC6
:1014D000D21102F0060242F0F0021A61B4E7760778
:1014E00070D55D682D05AFD4160602F0040540F1F5
:1014F00047817A0540F14481002D40F0448194F801
:101500003D20208D94F83E10E56AD2B2C9B2002881
:1015100040F09D82212A00F0A483402994D1222A00
:1015200092D1628D92B2002A00F0248394F83E207A
:10153000402A00F03181626A12F8011B1961638D43
:101540006262013B9BB263857EE7D60677D401F0E9
:10155000F701212902F0040000F0CD80550640F18A
:101560000081790540F1FD80002840F0FD8094F86D
:101570003D10628D92B2C9B2002A3FF465AF626A33
:101580001B691370638D626A013B9BB26385638D37
:1015900001329BB26262002B7FF456AF2A297FF49E
:1015A00053AF226853682225282123F480635360B7
:1015B0002046256384F83D10FFF77AFD44E79869DB
:1015C0005A6927E759680D053FF53EAF500602F00E
:1015D000040100F1E78000293FF436AFBE057FF536
:1015E00033AFE06A628D616A92B2042A00F0FD8135
:1015F000628D92B2032A00F03C82628D92B2022A7E
:1016000000F06D821B690B70638D626A013B0132D1
:101610009BB26262638517E7BD057FF560AF626CC0
:10162000616BD2B21A61002900F02481CA6B002AD2
:1016300000F020815A6842F400625A6004E7B8055D
:1016400085D594F83D605A6822F4E0625A600D95A1
:101650005A690D921A6842F001021A600D9A1A68CE
:1016600022F480621A605A681105F6B200F1C08057
:10167000638D9BB213B323685A6952070AD5626A15
:101680001B691370628D636A013A591C92B2236818
:10169000616262855A69570609D5626A1B691370CF
:1016A000638D626A013B01329BB262626385638D26
:1016B0009BB21BB1236C43F004032364236C002B07
:1016C00040F0C1802A2E00F04C8194F83D30282B48
:1016D00000F05781236B222B02D0222E7FF4B4AE70
:1016E000002320222363204684F83D2084F83E30E6
:1016F000FFF7DEFCA8E6150627D57A0525D538BB09
:1017000094F83D00628D92B2C0B2002A3FF49CAEC4
:10171000626A12F8015B1D616262628D013A92B2E7
:101720006285628D92B2002A7FF48EAE29287FF402
:101730008BAE5A68282522F480625A6020462163C5
:1017400084F83D50FFF7B2FC7EE600283FF47CAE03
:10175000BE057FF579AE628D92B2002A3FF474AE79
:10176000E9E600283FF470AEBA057FF56DAE628DF4
:1017700092B2002A3FF468AE626A1B69137043E7B5
:10178000002D3FF461AEBE057FF55EAE212900F06D
:10179000338140287FF458AE20460FB0BDE8F040BA
:1017A000FFF78CBC7A057FF516AF00297FF416AFE2
:1017B00094F83D20222A7FF447AEE06A628D92B20F
:1017C000032A40F21782626A1B691370638D626A92
:1017D000013B9BB26385638D9BB20132032B626236
:1017E0007FF432AE2268536823F4806353602BE6A3
:1017F00006F0F702222A00F09380606B02685268BC
:1018000092B26285628D92B21AB1226C42F00402E9
:1018100022645A6822F400625A60FEF783FE0128AF
:1018200008D0606B9A4B0365FEF794FD10B1606BB6
:10183000036D9847638D9BB2002B7FF41CAF236C24
:10184000002B3FF442AF20460FB0BDE8F040FFF759
:1018500015BD94F83D20212A626C16BF42F00102AA
:1018600002F0FE02D2B21A61626B1AB1D26B002A88
:101870007FF4E0AEA26B002A3FF4E6ADD26B002A03
:101880007FF4D8AEE0E5216D11B9402A00F0D88090
:10189000226D22B92169B1F5404F00F0DC80628DE4
:1018A00092B2002A7AD103925A6903929A690392FA
:1018B000039A1A6842F400721A6000232365C3E594
:1018C000226D3ABB626C02F0FE021A61BCE5012295
:1018D000E262EEE55A6822F480625A60070680F000
:1018E00004014FF0000354BFA289228B84F83C30DE
:1018F000C1F380012046FFF7DDFBA5E5226D012A3B
:101900007FF4A2AD626CD21102F0060242F0F10245
:101910001A6199E5626C42F00102D2B21A6193E554
:10192000A06B0268526892B26285628D92B21AB15F
:10193000226C42F0040222645A6822F400625A6067
:10194000FEF7F0FD01283FF493AEA06B504B03650A
