:020000040800F2
:10000000000002204D550408C5EF0008C9EF0008A4
:10001000DDEF0008E1EF0008E5EF00080000000058
:100020000000000000000000000000005176010800
:10003000E9EF000800000000E1760108B94D010871
:100040000956040809560408095604080956040804
:1000500009560408095604080956040809560408F4
:10006000EDEF00080956040809560408095604086B
:1000700009560408F5EF000801F000080DF000082B
:1000800019F00008095604080956040825F000086C
:1000900031F0000809560408095604083DF000082C
:1000A00051F00008095604080956040809560408C6
:1000B0006DF0000879F000080956040885F0000882
:1000C00091F0000809560408095604089DF000083C
:1000D000A9F00008B5F0000809560408C1F00008AE
:1000E000CDF000080956040809560408095604080A
:1000F000D5F00008095604080956040809560408F2
:100100000956040809560408F1F00008FDF000083B
:10011000095604080956040809F1000815F10008F9
:1001200021F10008095604082DF1000839F10008F2
:1001300045F1000809560408095604080956040840
:1001400009560408095604080956040851F1000824
:1001500009560408095604080956040809560408F3
:1001600009560408095604080956040809560408E3
:10017000095604080956040809560408000000003E
:080180000956040809560408A1
:10C00000DCAE050800000010F00A0010000000205F
:10C010002033012007484FF480410160064807495A
:10C02000016007484FF0010101600648D0F800D0D8
:10C030004068004744380240004002400DF0ADBA6D
:10C04000003801400000FF1F000000000000000059
:10C0500000000000000000000000000000000000E0
:10C0600002780B78012A28BF9A4240F0D8806DE907
:10C07000044540EA0104CDE902676FF0000C4FEA85
:10C0800044721AB380EA010414F0070F6BD100F078
:10C09000070420F0070004F0030521F007014FEA30
:10C0A000C505F0E8042314F0040FF1E804670CFA66
:10C0B00005F462EA040266EA04060BD063EA0403AC
:10C0C000624667EA0407664604E000BFF0E804231E
:10C0D000F1E8046782FA4CF582EA0604A4FA8CF4CB
:10C0E0006CBB83FA4CF583EA0705A5FA8CF595B984
:10C0F00050E9022351E9026782FA4CF582EA06040C
:10C10000A4FA8CF483FA4CF583EA0705A5FA8CF5BA
:10C110002543DBD09CB92DBAB5FA85F424F0070489
:10C1200027FA04F1DDE9026723FA04F303F0FF00C4
:10C1300001F0FF01FDE80445A0EB0100704724BABF
:10C14000B4FA84F424F0070426FA04F1DDE9026766
:10C1500022FA04F202F0FF0001F0FF01FDE80445BD
:10C16000A0EB0100704714F0030F3CD110F0030462
:10C1700028D150F8082B51F8083B82FA4CF582EA96
:10C180000305A5FA8CF55DB950F8042C51F8043C70
:10C1900082FA4CF582EA0305A5FA8CF5002DE8D069
:10C1A0002DBAB5FA85F424F0070423FA04F122FA33
:10C1B00004F202F0FF0001F0FF01FDE80445A0EBEE
:10C1C000010070474FEAC40420F0030050F8082B28
:10C1D00021F0030151F8083B0CFA04F462EA04026E
:10C1E00063EA0403C9E710F003041DD0A1EB0401C6
:10C1F00020F00300E40750F8042B06D012D28B780D
:10C200005FFAA2F4E41A06D12BB1CB785FFAB2F44C
:10C21000E41A00D133B920465DF8104B7047A2EB09
:10C220000300704701F1040150F8042BCC0721F002
:10C23000030151F8043B48D824D222F07F4482FA0B
:10C240004CF594EA1325A5FA8CF50AD165B951F895
:10C25000043B84EA0204B4EB036F0ED150F8042BC4
:10C26000EBE74FEA132355E035F07F454DD10878D1
:10C27000FDE80445C0F1000070474FEA126203F088
:10C28000FF0347E002EA1C4482FA4CF594EA1345A6
:10C29000A5FA8CF50AD165B951F8043B84EA020489
:10C2A000B4EB034F0CD150F8042BEBE74FEA1343E8
:10C2B00030E015EA1C4528D10B884FEA124229E0EC
:10C2C0004FEA124203EA1C4324E002F0FF0482FA20
:10C2D0004CF594EA1365A5FA8CF50AD165B951F8C5
:10C2E000043B84EA0204B4EB032F09D150F8042B79
:10C2F000EBE74FEA13630DE015F0FF0F05D10B6874
:10C300004FEA122223F07F4304E04FF00000FDE8E3
:10C310000445704712BA1BBA82FA4CF482EA03044D
:10C32000A4FA8CF5B5FA85F402FA04F203FA04F3E0
:10C330004FEA1260FDE80445A0EB1360704700BFB0
:10C3400001F0FF01102A2BDB10F0070F08D010F8C6
:10C35000013B013A8B422DD010F0070F42B3F6D1CA
:10C36000F0B441EA012141EA014122F007047FF0E3
:10C3700000070023F0E80256083C85EA010586EA3A
:10C38000010685FA47F5A3FA87F586FA47F6A5FA76
:10C3900087F68EB9EED1F0BC01F0FF0102F0070282
:10C3A00032B110F8013B013A83EA010313B1F8D12D
:10C3B0000020704701387047002D06BF354603380E
:10C3C000073815F0010F07D1013015F4807F02BF47
:10C3D000013015F4C03F0130F0BC0138704700BF98
:10C3E000844641EA000313F003036DD1403A41D380
:10C3F00051F8043B40F8043B51F8043B40F8043B3F
:10C4000051F8043B40F8043B51F8043B40F8043B2E
:10C4100051F8043B40F8043B51F8043B40F8043B1E
:10C4200051F8043B40F8043B51F8043B40F8043B0E
:10C4300051F8043B40F8043B51F8043B40F8043BFE
:10C4400051F8043B40F8043B51F8043B40F8043BEE
:10C4500051F8043B40F8043B51F8043B40F8043BDE
:10C4600051F8043B40F8043B51F8043B40F8043BCE
:10C47000403ABDD2303211D351F8043B40F8043B6E
:10C4800051F8043B40F8043B51F8043B40F8043BAE
:10C4900051F8043B40F8043B103AEDD20C3205D37E
:10C4A00051F8043B40F8043B043AF9D2043208D076
:10C4B000D2071CBF11F8013B00F8013B01D30B88E8
:10C4C00003806046704700BF082A13D38B078DD0C6
:10C4D00010F003038AD0C3F10403D21ADB071CBF98
:10C4E00011F8013B00F8013B80D331F8023B20F802
:10C4F000023B7BE7043AD9D3013A11F8013B00F83B
:10C50000013BF9D20B7803704B7843708B788370C2
:10C5100060467047000000000000000000000000BE
:10C52000000000000000000000000000000000000B
:10C5300000000000000000000000000000000000FB
:10C5400030B490F800F020F007016FF0000C10F00C
:10C55000070491F820F040F048804FF000046FF09D
:10C560000700D1E9002391F840F000F1080082FAB9
:10C570004CF2A4FA8CF283FA4CF3A2FA8CF34BBB84
:10C58000D1E9022382FA4CF200F10800A4FA8CF2FD
:10C5900083FA4CF3A2FA8CF3E3B9D1E9042382FACB
:10C5A0004CF200F10800A4FA8CF283FA4CF3A2FAE0
:10C5B0008CF37BB9D1E9062301F1200182FA4CF218
:10C5C00000F10800A4FA8CF283FA4CF3A2FA8CF37F
:10C5D000002BC6D0002A04BF04301A4612BAB2FAA1
:10C5E00082F200EBD20030BC7047D1E9002304F0A6
:10C5F0000305C4F100004FEAC50514F0040F91F8DB
:10C6000040F00CFA05F562EA05021CBF63EA050377
:10C6100062464FF00004AAE781F0004102E000BF4B
:10C6200083F0004330B54FEA41044FEA430594EAF2
:10C63000050F08BF90EA020F1FBF54EA000C55EA2D
:10C64000020C7FEA645C7FEA655C00F0E2804FEAFE
:10C650005454D4EB5555B8BF6D420CDD2C4480EAE0
:10C66000020281EA030382EA000083EA010180EA10
:10C67000020281EA0303362D88BF30BD11F0004F5E
:10C680004FEA01314FF4801C4CEA113102D0404294
:10C6900061EB410113F0004F4FEA03334CEA1333CF
:10C6A00002D0524263EB430394EA050F00F0A780E7
:10C6B000A4F10104D5F1200E0DDB02FA0EFC22FAE2
:10C6C00005F2801841F1000103FA0EF2801843FAD6
:10C6D00005F359410EE0A5F120050EF1200E012AC7
:10C6E00003FA0EFC28BF4CF0020C43FA05F3C01805
:10C6F00051EBE37101F0004507D54FF0000EDCF17E
:10C70000000C7EEB00006EEB0101B1F5801F1BD326
:10C71000B1F5001F0CD349085FEA30004FEA3C0C2A
:10C7200004F101044FEA445212F5800F80F09A8020
:10C73000BCF1004F08BF5FEA500C50F1000041EB24
:10C74000045141EA050130BD5FEA4C0C404141EB28
:10C750000101013C28BFB1F5801FE9D291F0000F23
:10C7600004BF01460020B1FA81F308BF2033A3F1D2
:10C770000B03B3F120020CDA0C3208DD02F1140CC9
:10C78000C2F10C0201FA0CF021FA02F10CE002F104
:10C790001402D8BFC2F1200C01FA02F120FA0CFCFD
:10C7A000DCBF41EA0C019040E41AA2BF01EB045146
:10C7B000294330BD6FEA04041F3C1CDA0C340EDC44
:10C7C00004F11404C4F1200220FA04F001FA02F387
:10C7D00040EA030021FA04F345EA030130BDC4F145
:10C7E0000C04C4F1200220FA02F001FA04F340EA3A
:10C7F0000300294630BD21FA04F0294630BD94F0EB
:10C80000000F83F4801306BF81F480110134013DD1
:10C810004EE77FEA645C18BF7FEA655C29D094EA42
:10C82000050F08BF90EA020F05D054EA000C04BFC0
:10C830001946104630BD91EA030F1EBF00210020AB
:10C8400030BD5FEA545C05D14000494128BF41F04A
:10C85000004130BD14F580043CBF01F5801130BDAE
:10C8600001F0004545F0FE4141F470014FF0000039
:10C8700030BD7FEA645C1ABF194610467FEA655CEA
:10C880001CBF0B46024650EA013406BF52EA03358C
:10C8900091EA030F41F4002130BD00BF90F0000F7A
:10C8A00004BF0021704730B54FF4806404F13204B6
:10C8B0004FF000054FF0000150E700BF90F0000F6F
:10C8C00004BF0021704730B54FF4806404F1320496
:10C8D00010F0004548BF40424FF000013EE700BF66
:10C8E00042004FEAE2014FEA31014FEA02701FBFF6
:10C8F00012F07F4393F07F4F81F06051704732F028
:10C900007F4208BF704793F07F4F04BF41F400217E
:10C91000704730B54FF4607401F0004521F00041DC
:10C920001CE700BF50EA010208BF704730B54FF066
:10C9300000050AE050EA010208BF704730B511F067
:10C94000004502D5404261EB41014FF4806404F19F
:10C9500032045FEA915C3FF4D8AE4FF003025FEA25
:10C96000DC0C18BF03325FEADC0C18BF033202EBA9
:10C97000DC02C2F1200300FA03FC20FA02F001FA03
:10C9800003FE40EA0E0021FA02F11444BDE600BFA6
:10C9900070B54FF0FF0C4CF4E06C1CEA11541DBF55
:10C9A0001CEA135594EA0C0F95EA0C0F00F0DEF820
:10C9B0002C4481EA030621EA4C5123EA4C5350EA05
:10C9C000013518BF52EA033541F4801143F4801356
:10C9D00038D0A0FB02CE4FF00005E1FB02E506F0E7
:10C9E0000042E0FB03E54FF00006E1FB03569CF03C
:10C9F000000F18BF4EF0010EA4F1FF04B6F5007F42
:10CA000064F5407404D25FEA4E0E6D4146EB0606B3
:10CA100042EAC62141EA55514FEAC52040EA5E503C
:10CA20004FEACE2EB4F1FD0C88BFBCF5E06F1ED8E6
:10CA3000BEF1004F08BF5FEA500E50F1000041EB1D
:10CA4000045170BD06F0004646EA010140EA0200CA
:10CA500081EA0301B4EB5C04C2BFD4EB0C0541EAEC
:10CA6000045170BD41F480114FF0000E013C00F301
:10CA7000AB8014F1360FDEBF002001F0004170BD25
:10CA8000C4F10004203C35DA0C341BDC04F114043E
:10CA9000C4F1200500FA05F320FA04F001FA05F2CA
:10CAA00040EA020001F0004221F0004110EBD37097
:10CAB00021FA04F642EB06015EEA430E08BF20EAC3
:10CAC000D37070BDC4F10C04C4F1200500FA04F366
:10CAD00020FA05F001FA04F240EA020001F00041F8
:10CAE00010EBD37041F100015EEA430E08BF20EA6B
:10CAF000D37070BDC4F1200500FA05F24EEA020EB3
:10CB000020FA04F301FA05F243EA020321FA04F0E1
:10CB100001F0004121FA04F220EA020000EBD37098
:10CB20005EEA430E08BF20EAD37070BD94F0000F98
:10CB30000FD101F00046400041EB010111F4801FCC
:10CB400008BF013CF7D041EA060195F0000F18BF7D
:10CB5000704703F00046520043EB030313F4801FB9
:10CB600008BF013DF7D043EA0603704794EA0C0F73
:10CB70000CEA135518BF95EA0C0F0CD050EA410689
:10CB800018BF52EA4306D1D181EA030101F0004106
:10CB90004FF0000070BD50EA410606BF104619462E
:10CBA00052EA430619D094EA0C0F02D150EA01363A
:10CBB00013D195EA0C0F05D152EA03361CBF10467B
:10CBC00019460AD181EA030101F0004141F0FE411A
:10CBD00041F470014FF0000070BD41F0FE4141F49E
:10CBE000780170BD70B54FF0FF0C4CF4E06C1CEA9E
:10CBF00011541DBF1CEA135594EA0C0F95EA0C0F53
:10CC000000F0A7F8A4EB050481EA030E52EA03350D
:10CC10004FEA013100F088804FEA03334FF080552E
:10CC200045EA131343EA12634FEA022245EA11155B
:10CC300045EA10654FEA00260EF000419D4208BF0C
:10CC4000964244F1FD0404F5407402D25B084FEAB9
:10CC50003202B61A65EB03055B084FEA32024FF465
:10CC600080104FF4002CB6EB020E75EB030E22BFC2
:10CC7000B61A754640EA0C005B084FEA3202B6EB82
:10CC8000020E75EB030E22BFB61A754640EA5C0031
:10CC90005B084FEA3202B6EB020E75EB030E22BFC1
:10CCA000B61A754640EA9C005B084FEA3202B6EBC2
:10CCB000020E75EB030E22BFB61A754640EADC0081
:10CCC00055EA060E18D04FEA051545EA16754FEAE3
:10CCD00006164FEAC30343EA52734FEAC2025FEA01
:10CCE0001C1CC0D111F4801F0BD141EA00014FF090
:10CCF00000004FF0004CB6E711F4801F04BF014361
:10CD00000020B4F1FD0C88BFBCF5E06F3FF6AFAE7C
:10CD1000B5EB030C04BFB6EB020C5FEA500C50F10C
:10CD2000000041EB045170BD0EF0004E4EEA11318F
:10CD300014EB5C04C2BFD4EB0C0541EA045170BD96
:10CD400041F480114FF0000E013C90E645EA060EDA
:10CD50008DE60CEA135594EA0C0F08BF95EA0C0F08
:10CD60003FF43BAF94EA0C0F0AD150EA01347FF450
:10CD700034AF95EA0C0F7FF425AF104619462CE727
:10CD800095EA0C0F06D152EA03353FF4FDAE10468A
:10CD9000194622E750EA410618BF52EA43067FF4DB
:10CDA000C5AE50EA41047FF40DAF52EA43057FF46B
:10CDB000EBAE12E74FF0FF3C06E000BF4FF0010C76
:10CDC00002E000BF4FF0010C4DF804CD4FEA410CDA
:10CDD0007FEA6C5C4FEA430C18BF7FEA6C5C1BD0A7
:10CDE00001B050EA410C0CBF52EA430C91EA030F28
:10CDF00002BF90EA020F0020704710F1000F91EA85
:10CE0000030F58BF994208BF90422CBFD8176FEA52
:10CE1000E37040F0010070474FEA410C7FEA6C5C20
:10CE200002D150EA013C07D14FEA430C7FEA6C5C27
:10CE3000D6D152EA033CD3D05DF8040B704700BF53
:10CE40008446104662468C461946634600E000BFA1
:10CE500001B5FFF7B7FF002848BF10F1000F01BD73
:10CE60004DF808EDFFF7F4FF0CBF012000205DF83E
:10CE700008FB00BF4DF808EDFFF7EAFF34BF0120C3
:10CE800000205DF808FB00BF4DF808EDFFF7E0FF5C
:10CE900094BF012000205DF808FB00BF4DF808EDAD
:10CEA000FFF7CEFF94BF012000205DF808FB00BF14
:10CEB0004DF808EDFFF7C4FF34BF012000205DF8F6
:10CEC00008FB00BF4FEA410C7FEA6C5C02D150EADC
:10CED000013C0AD14FEA430C7FEA6C5C02D152EA72
:10CEE000033C02D14FF0000070474FF00100704743
:10CEF0004FEA410212F5001215D211D56FF4787382
:10CF0000B3EB625212D94FEAC12343F0004343EA24
:10CF1000505311F0004F23FA02F018BF40427047FF
:10CF20004FF00000704750EA013005D111F0004089
:10CF300008BF6FF0004070474FF00000704700BF1F
:10CF40004A0011D212F5001211D20DD56FF4787388
:10CF5000B3EB62520ED44FEAC12343F0004343EADD
:10CF6000505323FA02F070474FF00000704750EA28
:10CF7000013002D14FF0FF3070474FF00000704792
:10CF80004FEA4102B2F1E04324BFB3F5001CDCF1EB
:10CF9000FE5C0DD901F0004C4FEAC0024CEA507023
:10CFA000B2F1004F40EB830008BF20F00100704752
:10CFB00011F0804F21D113F13872BCBF01F0004055
:10CFC000704741F480114FEA5252C2F11802C2F187
:10CFD000200C10FA0CF320FA02F018BF40F0010008
:10CFE0004FEAC1234FEAD32303FA0CFC40EA0C00BA
:10CFF00023FA02F34FEA4303CCE77FEA625307D1F7
:10D0000050EA01331EBF4FF0FE4040F4400070472D
:10D0100001F0004040F0FE4040F40000704700BFC7
:10D0200080F0004002E000BF81F0004142001FBFDD
:10D030005FEA410392EA030F7FEA226C7FEA236CE6
:10D040006AD04FEA1262D2EB1363C1BFD2184140DB
:10D0500048404140B8BF5B42192B88BF704710F071
:10D06000004F40F4000020F07F4018BF404211F014
:10D07000004F41F4000121F07F4118BF494292EA7C
:10D08000030F3FD0A2F1010241FA03FC10EB0C00A8
:10D09000C3F1200301FA03F100F0004302D5494235
:10D0A00060EB4000B0F5000F13D3B0F1807F06D3E2
:10D0B00040084FEA310102F10102FE2A51D2B1F1DA
:10D0C000004F40EBC25008BF20F0010040EA0300CF
:10D0D0007047490040EB0000013A28BFB0F5000F4F
:10D0E000EDD2B0FA80FCACF1080CB2EB0C0200FA05
:10D0F0000CF0AABF00EBC25052421843BCBFD04054
:10D100001843704792F0000F81F4000106BF80F4CD
:10D1100000000132013BB5E74FEA41037FEA226C90
:10D1200018BF7FEA236C21D092EA030F04D092F05B
:10D13000000F08BF0846704790EA010F1CBF00208F
:10D14000704712F07F4F04D1400028BF40F00040EC
:10D15000704712F100723CBF00F50000704700F00C
:10D16000004343F0FE4040F4000070477FEA226233
:10D1700016BF08467FEA23630146420206BF5FEA04
:10D18000412390EA010F40F4800070474FF0000304
:10D1900004E000BF10F0004348BF40425FEA000CCB
:10D1A00008BF704743F0964301464FF000001CE073
:10D1B00050EA010208BF70474FF000030AE000BFC9
:10D1C00050EA010208BF704711F0004302D5404207
:10D1D00061EB41015FEA010C02BF84460146002079
:10D1E00043F0B64308BFA3F18053A3F50003BCFA94
:10D1F0008CF2083AA3EBC25310DB01FA02FC634441
:10D2000000FA02FCC2F12002BCF1004F20FA02F247
:10D2100043EB020008BF20F00100704702F120023A
:10D2200001FA02FCC2F1200250EA4C0021FA02F29B
:10D2300043EB020008BF20EADC7070477BB972B98B
:10D240000029BEBF00204FF0004106E008BF0028C3
:10D250001CBF6FF000414FF0FF3000F057B8ADF148
:10D26000080C6DE904CE002909DB002B1ADB43F022
:10D2700073FDDDF804E0DDE9022304B070474042AD
:10D2800061EB4101002B1BDB43F066FDDDF804E0A0
:10D29000DDE9022304B0404261EB4101524263EBFD
:10D2A00043037047524263EB430343F055FDDDF8FF
:10D2B00004E0DDE9022304B0404261EB4101704724
:10D2C000524263EB430343F047FDDDF804E0DDE940
:10D2D000022304B0524263EB4303704753B94AB987
:10D2E000002908BF00281CBF4FF0FF314FF0FF306E
:10D2F00000F00CB8ADF1080C6DE904CE43F02CFD44
:10D30000DDF804E0DDE9022304B07047704700BF98
:10D310000348044B834202D0034B03B118477047C4
:10D32000F00A0010F00A0010000000000548064B4B
:10D330001B1AD90F01EBA301491002D0034B03B113
:10D3400018477047F00A0010F00A001000000000B3
:10D3500010B5064C237843B9FFF7DAFF044B13B13D
:10D360000448AFF300800123237010BD00000020AB
:10D37000000000007810050808B5054B1BB10549F1
:10D380000548AFF30080BDE80840FFF7CFBF00BFFE
:10D39000000000000400002078100508704700BF5E
:10D3A000704700BF01F03AB84FF0500383F3118883
:10D3B000BFF36F8FBFF34F8F704700BFBFF34F8F27
:10D3C0000549064BCA6802F4E0621343CB60BFF321
:10D3D0004F8F00BFFDE700BF00ED00E00400FA053D
:10D3E00008B509480022022103F0BAFC06480022D1
:10D3F000012103F0B5FC05480022802103F0B0FCB8
:10D400001FF030FFFCE700BF00100240000C02409C
:10D4100010B5002294B0CDE90A22CDE90322CDE96E
:10D420000522294901920C920792086C274B40F083
:10D4300080500864096C01F08051019101990292B9
:10D44000196841F4804119601B6803F4804302931A
:10D45000022401204FF480039FED197BCDE90D04D8
:10D460000F930420A823CDE91003072308A88DED0E
:10D47000087BCDE91243029904F010FF98B900220D
:10D480000F214FF4A0530224CDE90523CDE9031465
:10D490004FF4805303A80521079305F01DF90022DE
:10D4A00038B914B010BD0A480022214603F058FCD8
:10D4B000E5E70748214603F053FC14B010BD00BF58
:10D4C0000900000000000100003802400070004028
:10D4D0000010024010B50D4C4FF0A04004224FF454
:10D4E000007302212060227120460022E380C4F8EC
:10D4F0000910E28104F062FE00B910BDBDE81040E1
:10D5000003480022022103F02BBC00BF20000120B1
:10D51000001002402DE9804800249FB001F06CFF0C
:10D52000FFF776FFCDE91544CDE91744C04D0294CD
:10D5300019942B6BBF4843F010032B632B6B03F044
:10D5400010030293029B03942B6B43F004032B63A1
:10D550002B6B03F004030393039B04942B6B43F0A6
:10D5600080032B632B6B03F080030493049B0594CF
:10D570002B6B012213432B632B6B13400593059BED
:10D5800006942B6B43F002032B632B6B03F0020317
:10D590000693069B07942B6B43F008032B632B6BBE
:10D5A00003F0080307931021079B03F0D9FBA2485F
:10D5B000224641F2030103F0D3FBA048224641F288
:10D5C000834103F0CDFB9E4822464FF4777103F070
:10D5D000C7FB224697484FF4004103F0C1FB0126E8
:10D5E0007C239648179615A9CDE9153403F008FA5F
:10D5F0004FF460439348159315A94FF010084FF06E
:10D60000030ACDE9164603F0FBF98A48179415A9D9
:10D61000022741F20309CDE91586CDF860A003F099
:10D62000EFF98548CDF8549015A94FF4881BCDE942
:10D630001664189703F0E4F904237F48179715A997
:10D64000CDE9153B03F0DCF980237C48159315A93F
:10D65000CDE91667189403F0D3F9CDE916B77748EA
:10D660004FF4807B15A9CDF854B003F0C9F94FF4FD
:10D6700080637248159315A9CDE91667189603F0D3
:10D68000BFF96E4815A9CDE91596CDE9174403F009
:10D69000B7F94FF443736A48159315A94FF400493D
:10D6A000CDE91664189603F0ABF94FF404136448FF
:10D6B000179415A9CDE9159303F0A2F961481794C1
:10D6C00015A9CDE915B403F09BF95A4815A9CDE980
:10D6D0001596CDE9174703F093F9D02358481593D1
:10D6E00015A94FF02009CDE91664189403F088F9C4
:10D6F0004FF444135248179615A9CDE9159303F03A
:10D700007FF930234C48159315A9CDE9164403F051
:10D7100077F922460621082002F05CFD082002F07D
:10D720008BFD22460D21172002F054FD172002F038
:10D7300083FD22460D21282002F04CFD282002F016
:10D740007BFD00942B6B43F480032B632B6B03F462
:10D7500080030093009B01942B6B43F400132B6315
:10D760002B6B03F400132246052101930D20019B2E
:10D7700002F030FD0D2002F05FFD224609210E204F
:10D7800002F028FD0E2002F057FD224609210F204D
:10D7900002F020FD0F2002F04FFD224605214046F9
:10D7A00002F018FD404602F047FD22460A213A20C9
:10D7B00002F010FD3A2002F03FFD224606213B20F8
:10D7C00002F008FD3B2002F037FD22460A213C20F2
:10D7D00002F000FD3C2002F02FFD1B4BCDF854A0C1
:10D7E0001A46C3E901491C619C61184B13604FF64E
:10D7F000FF73D36015A905231046CDE91C44CDE97C
:10D80000167618940E941B961A970F94199306F097
:10D8100039FB002840F03D8400240B480EA9CDE9D7
:10D820000E4406F037FD002840F0D08510E000BF20
:10D830000038024000000240000402400010024094
:10D84000000C024000080240440701200004004090
:10D85000BC4ABD4B13604FF4803353600123136106
:10D8600082F8303053614FF080564FF0106300243F
:10D87000C2E90A3610460823CDE91544CDE917441C
:10D880009460147682F82040D460D36101F012FED7
:10D89000002840F0948503210122CDE915120423CC
:10D8A000A848179315A901F0BDFF002840F0808516
:10D8B0000224A44815A9CDE9154401F0B3FF0028BE
:10D8C00040F06F850D2203239E4815A9CDE915234D
:10D8D00001F0A8FF002840F05D850C220423994840
:10D8E00015A9CDE9152301F09DFF002840F04B85D7
:10D8F0000B220523934815A9CDE9152301F092FFCA
:10D90000002840F039850A2206238E4815A9CDE962
:10D91000152301F087FF002840F0278510210722FA
:10D92000CDE9151203238748179315A901F07AFF53
:10D93000002840F0138511220823824815A9CDE95B
:10D94000152301F06FFF002840F001857F4B002474
:10D950001A46C3E901441C619C614FF08043136087
:10D9600010464FF0FF33CDE90A44CDE90C44CDE930
:10D970001544CDE91744CDE90E44CDE91044CDE975
:10D9800008441994D36006F0C5F9002840F0D88403
:10D990004FF480536D480A930AA905F0BFFF002891
:10D9A00040F0C784694806F03FFA002840F0BA8486
:10D9B00004246023CDE9154302250024634819940B
:10D9C00015A9CDE9175406F05FF8002840F0A384AC
:10D9D000002402255D480E9422460EA9CDE910448C
:10D9E0000F9506F0C5FB002840F08E840224012329
:10D9F000564804220EA9CDE90E4306F0B9FB0028D3
:10DA000040F07B840024514808A9CDE9084406F081
:10DA100041FC002840F06A8400242022214615A8F9
:10DA2000CDE90A44CDE90C44CDE90844CDE90E44E2
:10DA3000CDE91044CDE91244149439F0B7FD444BBC
:10DA40001A46C3E901441C615C61424B13604FF606
:10DA5000FF73D36010468023936106F05BF90028C2
:10DA600040F03D844FF4805339480A930AA905F0E9
:10DA700055FF002840F02C84354806F0A7F900280F
:10DA800040F01F840024324808A9CDE9084406F07C
:10DA900001FC002840F00E84002460232C481494DC
:10DAA00022460EA9CDE90E34CDE91044CDE9124449
:10DAB00006F0B0FA002840F0F783254804220EA9AA
:10DAC00006F0A8FA002840F0E983214808220EA9B0
:10DAD00006F0A0FA002840F0DB831D480C220EA9B6
:10DAE00006F098FA002840F0CD8300244FF400534C
:10DAF0001748199415A9CDE91544CDE917441C948C
:10DB00001A9306F009FC002840F0B6831048DFF8AD
:10DB10004CA001F0F9F8104B00241A46C3E9024466
:10DB2000C3E904441C625C629C624FF48273C2E9E4
:10DB300000A34FF4007B2023C2E906B310460A235A
:10DB40000EE000BFF40C0120002001408C070120F2
:10DB5000D407012000000140B40A01200038004031
:10DB6000D36204F089FF002840F08083C14ADFF8C7
:10DB70003C9353230024C2E9009310466423CDE96B
:10DB80000E44CDE91044CDE90A44CDE91544CDE970
:10DB90001744CDE919441B94946014619461D360D7
:10DBA00006F0B8F8002840F05B834FF48053B1488A
:10DBB0000E930EA905F0B2FE002840F04B83AD484D
:10DBC00006F004F9002840F03F830024A9480AA980
:10DBD000CDE90A4406F05EFB002840F02F830024C4
:10DBE0004FF060083223A34817940C2215A9CDE901
:10DBF0001583199406F00EFA002840F019839D4809
:10DC00000C2105F085FE9C4B00241A46C3E9014413
:10DC10001C619C61994B136010464FF0FF33CDE9B6
:10DC20000A44CDE90C44CDE91544CDE91744CDE9CA
:10DC30000E44CDE91044CDE908441994D36006F0B0
:10DC400069F8002840F0EE824FF480538A480A9326
:10DC50000AA905F063FE002840F0DE82864806F03F
:10DC6000E3F8002840F0D28200244FF0040C502347
:10DC70008148199415A9CDE915C3CDE9174405F0DC
:10DC800003FF002840F0BC82002401237A480E9450
:10DC900022460EA9CDE910440F9306F069FA002838
:10DCA00040F0A8820224744804220EA9CDE90E4453
:10DCB00006F05EFA002840F0778200246E4808A93A
:10DCC000CDE9084406F0E6FA002840F067826C4B84
:10DCD0006C4E00241A46C3E902441C625C629C62DA
:10DCE0004FF48273C2E9006302250123C2E90453A1
:10DCF0004FF400771023C2E9067310460A23D3625B
:10DD000004F0BAFE002840F043825F4A5F480623D1
:10DD1000C2E900034FF420254FF480130024C2E928
:10DD2000045310464FF08073C2E902449483936118
:10DD300001F024FE002840F02582554BDFF870B139
:10DD40001A4600249C601C7683F82040DC60012386
:10DD5000136182F8303053614FF48033C2E900B36D
:10DD60004FF040514FF0106302251046CDE91544A5
:10DD7000CDE91744C2E90A31D56101F09BFB0028C7
:10DD800040F0FA8101234FF00E0ACDE915A3404877
:10DD9000042315A9179301F045FD002840F0E68102
:10DDA0000F2302243A4815A9CDE9153401F03AFDB4
:10DDB000002840F0D581374BDFF8F89000241A4650
:10DDC000C3E90244C3E90544DC611C62324B1046DE
:10DDD000C2E900934FF48043136102F0DBFF002897
:10DDE00040F0B8812D4BDFF8D0E000241A46C3E99B
:10DDF0000244C3E904441C625C629C624FF4827377
:10DE0000C2E900E34FF400780823C2E90683104614
:10DE10000A23D36204F030FE002840F09581204BA5
:10DE2000DFF898C000241A46C3E902441C619C61D3
:10DE3000DC614FF4E133C2E900C310460C235361A7
:10DE400006F030FB002840F07981164B00241A467A
:10DE5000C3E901441C619C61134B136010464FF6EB
:10DE6000FF73CDE91544CDE91744D36005F052FFA7
:10DE700026E000BFFC060120B4060120000C004093
:10DE80000C0B012000300140C40B01200064004055
:10DE9000AC0C0120700B0120A08601005C0A01205F
:10DEA0004C050120DC050120004001400008004035
:10DEB0000021014000540040003C0040001001409F
:10DEC000002840F035814FF48053BA48159315A9C6
:10DED00005F024FD002840F02581B74AB74B1360B8
:10DEE000022440F6FF731046C2E9014304F038F9FA
:10DEF000002840F01181B24BB24E00241A46C3E90B
:10DF000002441C619C61DC614FF4E123C2E90063BF
:10DF100010460C23536106F0C5FA002840F0F68045
:10DF2000A94AAA4D53230024C2E900531046642392
:10DF3000946014619461D36005F0ECFE002840F019
:10DF4000DF80A34AA348A7230024C2E900034FF6B9
:10DF5000FF731046CDE9154494609461D36005F0D9
:10DF6000D9FE002840F0C6800024994815A9CDE9C3
:10DF7000154406F08FF9002840F0B68000242022D6
:10DF8000214615A8CDE90A44CDE90C44CDE9084461
:10DF9000CDE90E44CDE91044CDE91244149439F092
:10DFA00005FB8D4B1A46C3E901441C615C619C6111
:10DFB0008A4B136010464FF6FF73D36005F0AAFE3C
:10DFC000002840F08B804FF4805383480A930AA9BD
:10DFD00005F0A4FC00287BD17F4805F0C9FE00288D
:10DFE00070D1402300247C4808A9CDE9083406F00C
:10DFF00051F9002860D100247748149422460EA9D4
:10E00000CDE90E44CDE91044CDE9124405F0CAFF34
:10E0100000284BD100244FF400536F481C9415A9DD
:10E02000CDE91544CDE91744CDE9194306F074F95B
:10E03000B0BB00220621382002F0CCF8382002F0D4
:10E04000FBF8002206211D2002F0C4F81D2002F07A
:10E05000F3F8FFF73FFA62480122802102F080FEC8
:10E06000012211465F4802F07BFE012202215D4839
:10E0700002F076FE642001F0EBF906F0ABFE5A4A9E
:10E080005A48002106F0D6FE594B186006F0B4FE3F
:10E09000FEE754482246394602F062FEFFF7BCBB59
:10E0A00050482246022102F05BFEC2E74D4822465C
:10E0B000022102F055FEADE74A482246022102F055
:10E0C0004FFE98E747480022022102F049FE88E708
:10E0D00044480022022102F043FE7DE741482246E7
:10E0E000022102F03DFE6EE73E482246022102F088
:10E0F00037FE43E73B482246022102F031FE33E778
:10E1000038482246022102F02BFE1AE73548224603
:10E11000022102F025FE03E732482146002202F0E8
:10E120001FFEE8E62F480022022102F019FED4E685
:10E130002C482246022102F013FEC4E6294822465A
:10E14000022102F00DFE80E626482246022102F05E
:10E1500007FE64E623482246022102F001FE41E662
:10E1600020482146002202F0FBFD24E61D48002243
:10E17000022102F0F5FD13E61A482246294602F074
:10E18000EFFDFFE517482246022102F0E9FDD4E544
:10E1900014482246294602F0E3FDB6E5114822461E
:10E1A000022102F0DDFD92E50E482146002202F038
:10E1B000D7FD82E5DC050120640B01200030004022
:10E1C000040501200048004094050120001C004087
:10E1D0006C060120001000402406012000040140CC
:10E1E000000C02400010024058150508E1D3000859
:10E1F0001C00012079482246022102F0B1FD51E5C0
:10E2000076482246022102F0ABFD3DE5734800222C
:10E21000022102F0A5FD27E570480022022102F04C
:10E220009FFD1BE56D482246022102F099FD0BE59A
:10E230006A482246022102F093FDE0E46748224644
:10E24000022102F08DFDCAE464480022022102F09E
:10E2500087FDBAE461480022022102F081FDAEE4AC
:10E260005E482246022102F07BFD9EE45B48224686
:10E27000022102F075FD79E458482246022102F09D
:10E280006FFD43E455480022022102F069FD2CE4B1
:10E2900052480022022102F063FD1EE44F48002292
:10E2A000022102F05DFD10E44C482246022102F0FA
:10E2B00057FD02E449482246022102F051FDFFF7D2
:10E2C000EBBB46480022022102F04AFDFFF7DABB11
:10E2D00042480022022102F043FDFFF7CDBB3F4838
:10E2E0002246022102F03CFDFFF7BCBB3B48224620
:10E2F000022102F035FDFFF78FBB3848214600228E
:10E3000002F02EFDFFF77EBB34482246294602F07C
:10E3100027FDFFF76BBB31482246294602F020FD5E
:10E32000FFF756BB2D480022022102F019FDFFF72E
:10E330003FBB2A480022022102F012FDFFF732BB48
:10E3400026482246022102F00BFDFFF721BB23489D
:10E350000022022102F004FDFFF7F8BA1F48002254
:10E36000022102F0FDFCFFF7E6BA1C480022022160
:10E3700002F0F6FCFFF7D2BA18480022022102F0A0
:10E38000EFFCFFF7C0BA15480022022102F0E8FCBA
:10E39000FFF7AEBA11480022022102F0E1FCFFF7BC
:10E3A0009CBA0E480022214602F0DAFCFFF78ABA36
:10E3B0000A480022022102F0D3FCFFF779BA07488D
:10E3C0002246022102F0CCFCFFF765BA0348224640
:10E3D000022102F0C5FCFFF73BBA00BF001002406B
:10E3E00008B5024B024A1A60FEF7E8FF00400240FF
:10E3F000ADBE0FD008B5024B024A1A60FEF7DEFF31
:10E4000000400240EFBEADDE034B02689A4201D0ED
:10E410001FF070BA01F00AB8001400400248002250
:10E42000022102F09DBC00BF0010024082B00E4BE2
:10E4300000220092596C41F480415964586C00F4F8
:10E440008040009000980192186C40F08050186451
:10E450001B6C03F080530193019B0F216FF00100AF
:10E4600002B001F0B7BE00BF00380240000000005B
:10E4700010B5026854498CB000238A42CDE90633B6
:10E48000CDE9083304460A9304D050498A4251D05A
:10E490000CB010BD4E4A0193516C41F4807151642F
:10E4A000516C01F48071019101990293116B41F05B
:10E4B00004011163116B01F00401029102990393AD
:10E4C000116B41F001011163126B0F2002F0010288
:10E4D0000321CDE9060103923E48039A06A902F002
:10E4E0008FFA9FED357B00233B48089306A98DEDFD
:10E4F000067B02F085FA394A3948106000234FF450
:10E500008061C2E903314FF480504FF48041C2E989
:10E5100005014FF480711046C2E90133C2E90713C7
:10E52000536201F0A9FE2D4A002841D1A2639463F1
:10E530000CB010BD264A0493506C40F40070506437
:10E54000506C00F40070049004980593106B40F038
:10E5500004001063126B1F489FED197B02F0040248
:10E5600006A905928DED067B059A02F049FA1D4A2F
:10E570001D484FF00071C2E900014FF480604FF474
:10E580008051C2E904014FF480404FF48071C2E928
:10E59000060100231046C2E90233C2E9083301F044
:10E5A0006BFE104A0028C1D0FFF738FF0D4ABDE7C7
:10E5B000FFF734FF094AB9E70C0000000300000030
:10E5C0003000000003000000002001400021014055
:10E5D0000038024000080240000002404C0C0120BC
:10E5E00070640240EC0B0120406402400000000017
:10E5F00000B50168224B89B000229942CDE9022280
:10E60000CDE90422069201D009B000BD03F5EA333A
:10E610000092186C40F000701864186C00F00070E4
:10E62000009000980192186B40F0080018631B6B73
:10E6300014489FED117B03F008034FF0030C019386
:10E6400002A909238DED027BCDE905C3DDF804E0C5
:10E6500002F0D6F900220A21132001F0BBFD13209D
:10E6600001F0EAFD00220921142001F0B3FD14207D
:10E6700001F0E2FD09B000BD03000000020000004F
:10E6800000640040000C024000B50168284B89B0CE
:10E6900000229942CDE90222CDE90422069201D05E
:10E6A00009B000BD03F5F2330092186B9FED1C7B9F
:10E6B00040F002001863186B8DED027B9FED1A7B12
:10E6C00000F00200009002A94FF0040C1948DDF898
:10E6D00000E0CDF818C08DED047B02F091F9002226
:10E6E000154B0192D3F840C04CF4001CC3F840C055
:10E6F0001B6C03F40013082101931F20019B01F000
:10E7000069FD1F2001F098FD00220821202001F062
:10E7100061FD202001F090FD09B000BDAFF3008045
:10E7200000030000120000000100000003000000D0
:10E7300000540040000402400038024008B502685E
:10E740000D4B9A4200D008BD0C4A0D48136C23F4BF
:10E75000001313644FF4807102F058FA08484FF424
:10E76000007102F053FA1F2001F074FDBDE808406B
:10E77000202001F06FBD00BF00540040003802406F
:10E78000000402400000000010B50268AC498CB0E3
:10E7900000238A42CDE90633CDE9083304460A93C3
:10E7A00008D0A8498A426AD0A7498A4200F0C380AB
:10E7B0000CB010BDA54A0093506C40F480505064DA
:10E7C000506C00F48050009000980193106B40F062
:10E7D00001001063126B9FED947B02F00102019225
:10E7E00003200522CDE9090206A99948DDF804C0F5
:10E7F0008DED067B02F004F9964A97484FF0C06110
:10E800000023C2E900014FF48060C2E904034FF421
:10E8100080311046C2E90233C2E906331162536205
:10E8200001F02AFD8B4A002840F0E7808B4B8C4892
:10E83000E26494634FF0C0620021C3E9000240200B
:10E840004FF48062C3E902011A6118464FF4803226
:10E85000C3E90511C3E90712596201F00DFD7F4BB1
:10E86000002840F0C680A3640022062123209C6378
:10E8700001F0B0FC232001F0DFFC0CB010BD734AA6
:10E880000293106C40F480401064106C00F48040DF
:10E89000029002980393106B40F002001063126B19
:10E8A0009FED637B02F00202039203200522CDE973
:10E8B000090206A96B48DDF80CC08DED067B02F05D
:10E8C0009FF8694A6948106000234FF48061104640
:10E8D000C2E90133C2E90331C2E90533C2E90733B2
:10E8E000536201F0C9FC604A002840F08A80604B06
:10E8F0006048E264002194634022C3E900019A6009
:10E9000018464FF48062C3E90312C3E90511C3E955
:10E910000711596201F0B0FC554B002875D1A36472
:10E920000022092124209C6301F054FC242001F0E2
:10E9300083FC0CB010BD454A0493106C40F40040B9
:10E940001064106C00F40040049004980593106B60
:10E9500040F004001063126B9FED377B02F004025D
:10E96000059203200622CDE9090206A94248DDF8F6
:10E9700014C08DED067B02F043F8404A4048106019
:10E9800000234FF48061C2E9033110464FF4803117
:10E99000C2E90133C2E90533C2E90731536201F02C
:10E9A0006BFC364A002838D1364B3748E2640021E8
:10E9B000C3E9000194634FF480604022C3E903106F
:10E9C0009A6018464FF48032C3E90511C3E9071273
:10E9D000596201F051FC2B4BD8B9A36400220821E5
:10E9E00033209C6301F0F6FB332001F025FC0CB0D2
:10E9F00010BDFFF713FD194B35E7FFF70FFD154A63
:10EA000014E7FFF70BFD184A71E7FFF707FD184BF6
:10EA100085E7FFF703FD1B4BDFE7FFF7FFFC174A16
:10EA2000C2E700BFAFF30080E0000000020000007A
:10EA300000E0000002000000001C000002000000D6
:10EA40000030014000380040003C004000380240E7
:10EA500000000240FC090120106402409C090120D2
:10EA600058640240000402403C0901205860024002
:10EA7000DC08012070600240000802407C08012090
:10EA8000406002401C080120886002400000000035
:10EA900000B50368764991B000228B42CDE90A2285
:10EAA000CDE90C220E9237D0B3F1804F48D0714996
:10EAB0008B4224D070498B426DD070498B4200F05C
:10EAC00093806F498B4200F0A2806E498B4200F028
:10EAD000B1806D498B421DD16C4B0992196C41F08C
:10EAE000800119641B6C03F0800309930C212C2016
:10EAF000099B01F06FFB2C2001F09EFB0AE0634BA9
:10EB000003921A6C42F004021A641B6C03F00403B3
:10EB10000393039B11B000BD5C4B0092596C41F014
:10EB2000010159645B6C03F0010306210093182076
:10EB3000009B01F04FFB182001F07EFB11B000BDDF
:10EB400003F50E330192186C40F001001864186C44
:10EB500000F00100019001980292186B40F0010052
:10EB600018631B6B4A489FED3E7B03F00103029341
:10EB70000AA901238DED0A7BDDF808C00E9301F090
:10EB80003FFF002207211C2001F024FB1C2001F084
:10EB900053FB11B000BD3D4B0492186C40F00800CF
:10EBA0001864186C00F00800049004980592186B23
:10EBB00040F0010018631B6B35489FED2B7B03F081
:10EBC000010305930AA902238DED0A7BDDF814C029
:10EBD0000E9301F015FF00220621322001F0FAFA0F
:10EBE000322001F029FB95E7284B0692196C41F081
:10EBF000100119641B6C03F0100306930B213620DF
:10EC0000069B01F0E7FA362001F016FB82E71F4B66
:10EC10000792596C41F0020159645B6C03F00203E6
:10EC200007930C212C20079B01F0D4FA2C2001F033
:10EC300003FB6FE7154B0892596C41F4803159641E
:10EC40005B6C03F48033089306211820089B01F0C5
:10EC5000C1FA182001F0F0FA5CE700BFAFF30080C2
:10EC6000020000000200000001000000020000009D
:10EC70000000014000080040000C0040001000406F
:10EC80000004014000400140001C004000380240E8
:10EC9000000002400000000000B50168184A89B079
:10ECA00000239142CDE90233CDE90433069301D02C
:10ECB00009B000BD02F50D320093106C40F0020067
:10ECC0001064106C00F00200009000980193136B28
:10ECD0000C4843F004031363136B9FED077B03F0B1
:10ECE0000403019302A902238DED027B019A06938E
:10ECF00001F086FE09B000BDC00000000200000067
:10ED0000000400400008024000B50168144A89B0C0
:10ED100000239142CDE90233CDE90433069301D0BB
:10ED200009B000BD02F59C320193136B43F0100350
:10ED30001363136B9FED087B03F01003019301989D
:10ED400008480222012302A98DED027B0592069359
:10ED500001F056FE09B000BD006A0000020000008C
:10ED6000000001400010024000B5036838498BB034
:10ED700000228B42CDE90422CDE90622089204D07C
:10ED800034498B422ED00BB000BD334B0092586CEF
:10ED900040F010005864586C00F01000009000988B
:10EDA0000192186B40F0020018631B6B2B489FED1B
:10EDB000247B03F002034FF0030C019304A9072303
:10EDC0008DED047BCDE907C3DDF804E001F018FE0A
:10EDD00000220721252001F0FDF9252001F02CFA61
:10EDE0000BB000BD1C4B0292186C40F480201864DC
:10EDF000186C00F48020029002980392186B40F087
:10EE0000020018631B6B15489FED0F7B03F0020394
:10EE10004FF0030C039304A907238DED047BCDE988
:10EE200007C3DDF80CE001F0EBFD002207212720ED
:10EE300001F0D0F9272001F0FFF90BB000BD00BFB1
:10EE4000C000000002000000000C000002000000F2
:10EE50000010014000480040003802400004024019
:10EE600000B5036889B00022B3F1A04FCDE90222BA
:10EE7000CDE90422069201D009B000BD244B0092D6
:10EE8000196B41F001011963196B4FF4007001F027
:10EE900001010091029002A91E48DDF800C001F0B6
:10EEA000AFFD9FED177B8DED027B9FED177B02A9D8
:10EEB0004FF00A0C1748CDF818C08DED047B01F017
:10EEC0009FFD134BD3F834C000224CF0800CC3F8E4
:10EED00034C00192D3F844C04CF4804CC3F844C011
:10EEE0005B6C03F480430E2101934320019B01F0EE
:10EEF00071F9432001F0A0F909B000BDAFF3008023
:10EF000000180000020000000000000003000000E4
:10EF1000003802400000024030B58BB0244B002284
:10EF200004921A6C42F020021A641B6C03F0200356
:10EF30000493054603A905A8049B03F08DFC089BD8
:10EF4000D3B903F069FC03461A4A1B481B49A2FBCC
:10EF500003239B0C013B0022C0E9001340F2E7337E
:10EF60000261826082610446C36004F0D3FE0246FF
:10EF700030B110460BB030BD03F04EFC4300E3E768
:10EF8000204604F0B3FB02460028F2D1019037205E
:10EF900001F052F90F2D019A01D90122E9E7294622
:10EFA000372001F017F9064B019A1D60E1E700BF19
:10EFB0000038024083DE1B433C0D0120001400405A
:10EFC00008000010704700BF08B503480122022165
:10EFD00001F0C6FEFEE700BF00100240FEE700BFE2
:10EFE000FEE700BFFEE700BF704700BF042001F04E
:10EFF000C5BE00BF014801F077BA00BF7C08012000
:10F00000014801F071BA00BF3C090120014801F03C
:10F010006BBA00BFDC080120014801F065BA00BFEF
:10F020001C080120014800F063BF00BFC40B012091
:10F03000014800F05DBF00BFC40B012008B52020CF
:10F0400001F09CFEBDE808404FF4807001F096BED0
:10F0500008B5044804F04AFDBDE80840024804F041
:10F0600045BD00BFD4070120DC050120014804F0A4
:10F070003DBD00BF8C070120014804F037BD00BF33
:10F0800044070120014802F06DBA00BF700B012057
:10F09000014802F059BF00BF700B0120014804F085
:10F0A0003BB900BF0C0B0120014804F035B900BF8B
:10F0B000B40A0120014805F0D5BA00BF4C05012073
:10F0C000014805F0CFBA00BF040501204FF400400D
:10F0D00001F054BE08B5044804F008FDBDE808403E
:10F0E000024804F003BD00BF24060120940501205E
:10F0F000014804F0FBBC00BFB4060120014804F045
:10F100000BB900BF5C0A0120014804F0EFBC00BF4E
:10F110006C060120014804F0E9BC00BF3C0D012051
:10F12000014801F0E1B900BFFC090120014801F0EC
:10F13000DBB900BFEC0B0120014801F0D5B900BFDD
:10F140009C090120014801F0CFB900BF4C0C0120FF
:10F1500000200BF005BD00BF0120704708B538F056
:10F1600057FB162303604FF0FF3008BD08B538F099
:10F170004FFB16230360FEE770B5161E07DD0C4635
:10F180008D19AFF3008004F8010BA542F9D1304688
:10F1900070BD00BF70B5161E07DD0C468D1914F842
:10F1A000010BAFF30080A542F9D1304670BD00BF1E
:10F1B0004FF0FF30704700BF4FF400534B6000200A
:10F1C000704700BF01207047002070470D490E4A6C
:10F1D000DFF83CC008B50B68A2EB0C022BB1184459
:10F1E000904207D80860184608BD084B0B601844C9
:10F1F0009042F7D938F00CFB0C2303604FF0FF333B
:10F20000184608BD840D0120000002202033012093
:10F21000000400001249134BD1F88820DFF848C0E1
:10F2200042F47002C1F888201A68002042F00102FE
:10F230001A6098601A6822F0847222F480321A6090
:10F24000C3F804C01A6822F480221A60D8605A6F8A
:10F250004FF0006C42F080725A67C1F808C07047E6
:10F2600000ED00E0003802401030002400000000F3
:10F2700000B583B070B101900C201EF089F8019B9D
:10F28000186068B19FED087B002380ED007B03725E
:10F2900003B000BD38F0BCFA1623036003B000BD14
:10F2A00072B6FFF7BBF8FEE70000000000000000A8
:10F2B0001EF070B808B5A8B1037A012B0ED85A1CFD
:10F2C0000272EFF311824FF0500181F31188BFF306
:10F2D0006F8FBFF34F8F40F8232008BD72B6FFF742
:10F2E0009DF8FEE772B6FFF799F8FEE708B570B132
:10F2F000037A013BDBB2012B037204D850F82330B0
:10F3000083F3118808BD72B6FFF788F8FEE772B67E
:10F31000FFF784F8FEE700BF08B538B3BFF35B8F93
:10F320000378BFF35B8FDBB20BB1002008BD1D4B30
:10F330001A7A012A1ED8511C1972EFF311814FF06D
:10F34000500C8CF31188BFF36F8FBFF34F8F43F8CE
:10F350002210BFF35B8F0278BFF35B8FD2B28AB902
:10F3600043785BB901234370184608BD72B6FFF7B6
:10F3700055F8FEE772B6FFF751F8FEE772B6FFF7F1
:10F380004DF8FEE71A7A013AD2B2012A1A7204D86D
:10F3900053F8223083F31188C7E772B6FFF73EF8BF
:10F3A000FEE700BF880D012008B5D0B1BFF35B8F29
:10F3B0004FF001030370BFF35B8F43786BB10D4ACD
:10F3C00000234370137A013BDBB2012B13720CD87C
:10F3D00052F8233083F3118808BD72B6FFF71EF888
:10F3E000FEE772B6FFF71AF8FEE772B6FFF716F8F7
:10F3F000FEE700BF880D012008B50B4B1A6842F4E8
:10F4000000721A601A6842F480621A601A6842F444
:10F4100080721A60032000F0CBFE0420FFF77CFD11
:10F42000FFF704F8002008BD003C0240034A044BEB
:10F4300011681B780B441360704700BFB80D0120A2
:10F4400004000010014B1868704700BFB80D012080
:10F4500038B50446FFF7F6FF631C054602D0044B9F
:10F460001B781C44FFF7EEFF401BA042FAD338BDC7
:10F4700004000010014B1868000C7047002004E0E5
:10F48000024B1868C0F30B00704700BF002004E077
:10F49000014BD3F8100A70470070FF1F014BD3F8DF
:10F4A000140A70470070FF1F014BD3F8180A704709
:10F4B0000070FF1F002800F0A98010B5026C82B018
:10F4C000034642B11A6CD2060FD50120002283F800
:10F4D0003C2002B010BDCDE90020FEF7C9FFDDE9F8
:10F4E00000235A641A6CD206EFD41A6C4B4922F4EA
:10F4F000885222F0020242F002021A6448681A6836
:10F5000020F44030486048685C6820434860516897
:10F51000D3F810C0986821F480715160516841EAB5
:10F520000C2151605168D3F80CC021F0407151603A
:10F530005168014351609168986A21F400619160BB
:10F54000916841EA0C01916035498842916855D033
:10F5500021F07061D3F82CC09160916808439060ED
:10F56000916821F040519160916841EA0C019160ED
:10F57000916821F0020191609168187E41EA400192
:10F58000916093F82010002942D05168586A41F4E4
:10F5900000615160516821F4604151605168013847
:10F5A00041EA40315160D16AD869D3F814C021F4DE
:10F5B0007001D162D16A013841EA0051D16291688B
:10F5C00021F400719160916893F8300041EA402184
:10F5D0009160916821F4806191609168002041EA16
:10F5E0008C21916058641A6C22F0030242F00102EF
:10F5F0001A64002283F83C2002B010BD21F0706133
:10F600009160916821F040519160B1E7012070470D
:10F61000516821F400615160C5E700BF002301403B
:10F620000100000F10B5044682B094F83C30002071
:10F63000012B019000F092800123D4F800C084F8DF
:10F640003C30DCF80830D80716D4DCF8083043F03A
:10F650000103CCF80830454B1868454BA3FB00303C
:10F66000800C00EB40000190019B2BB1019B013B02
:10F67000019301980028F9D1DCF80830DB0505D5A5
:10F68000DCF8083023F48073CCF80830DCF808305C
:10F69000D80754D5206C20F4E06020F0010040F43D
:10F6A00080702064DCF804305B0505D5236C23F4FE
:10F6B000405343F480532364236CA06B13F48053B2
:10F6C0001CBF636C23F00603636413460A460021E3
:10F6D00084F83C102749C163274901642749C16464
:10F6E0006FF02201CCF80010DCF8041041F08061CA
:10F6F000CCF80410DCF8081041F48071CCF8081044
:10F700000CF14C0100F04CFE1D4A23685168C806FC
:10F7100020D11C498B4209D001F580718B4220D049
:10F7200019498B4213D15268D20610D49A6812F04C
:10F73000405F0CD19A6842F080429A6007E0236CE7
:10F7400043F010032364636C43F0010363640020FF
:10F7500002B010BD0B4A9342F9D1E7E7022002B094
:10F7600010BD5268D106E1D0F1E700BF00000010E3
:10F7700083DE1B43B9F7000891F70008A1F70008E2
:10F78000002301400020014000220140704700BFDB
:10F7900008B5806BFFF7FAFF08BD00BF704700BFD8
:10F7A000806B08B540230364436C43F00403436457
:10F7B000FFF7F4FF08BD00BF836B1A6C12F0500F07
:10F7C00010B51A6C23D142F4007219681A648A6861
:10F7D00012F0405F17D11A7EAAB9CA6A12F4700FEC
:10F7E00002D08A6850050ED44A6822F020024A608E
:10F7F0001A6C22F480721A641A6CD10403D41A6C45
:10F8000042F001021A6418461EF046F810BDD206F6
:10F8100004D49B6BBDE81040DB6C18471846FFF71B
:10F82000BDFF10BD70B590F83C3082B00022012BB6
:10F83000019200F09980D1F800E003688A68BEF177
:10F84000090F1FFA8EFC28D81D690EEB4E040726FF
:10F85000A24006FA04F425EA04041C611C69224350
:10F860001A614A68062A2AD8013A596B02EB8202C9
:10F870001F240CFA02FC04FA02F221EA02025A6383
:10F880005A6B4CEA02025A63394A93422CD0002345
:10F8900080F83C30184602B070BDACF10A04DD6857
:10F8A00004EB44040726A24006FA04F425EA040403
:10F8B000DC60DC682243DA604A68062AD4D90C2A64
:10F8C0003AD8073A196B02EB82021F240CFA02FCA9
:10F8D00004FA02F221EA02021A631A6B4CEA0202EB
:10F8E0001A63234A9342D2D1BEF1120F35D0AEF142
:10F8F0001003012BCBD81F4A5368BEF1100F43F4FD
:10F9000000035360C3D11C4B02F146721B6802F521
:10F910002E3202F28332A2FB03239B0C03EB830300
:10F920005B000193019B002BB1D0019B013B019334
:10F93000019B002BF9D1AAE70D3AD96A02EB8202AA
:10F940001F240CFA02FC04FA02F221EA0202DA6233
:10F95000DA6A4CEA0202DA6296E7D2F8043343F438
:10F960008003C2F8043392E7022002B070BD00BFEA
:10F9700000200140002301400000001000287BD03F
:10F9800038B590F820300446002B72D022681368F6
:10F9900043F001031360FFF755FD054604E0FFF750
:10F9A00051FD401B0A285BD823685A68D107F6D559
:10F9B0001A6822F002021A60FFF744FD054604E0CF
:10F9C000FFF740FD401B0A284AD823685A6892076F
:10F9D000F6D4227E012A1A680CBF42F0800222F07F
:10F9E00080021A60627E012A1A680CBF42F040024F
:10F9F00022F040021A60A27E012A1A680CBF42F06F
:10FA0000200222F020021A60E27E012A1A680CBF4E
:10FA100022F0100242F010021A60227F012A1A68B6
:10FA20000CBF42F0080222F008021A60627F012A2D
:10FA30001A680CBF42F0040222F004021A60D4E9F2
:10FA40000220216902430A43606961680243013967
:10FA50000A4300200121DA61606284F8201038BD79
:10FA6000636A052243F40033636284F82020012096
:10FA700038BDFEF7BDFD89E70120704790F82020D2
:10FA8000013A012A06D9426A034642F48022012043
:10FA90005A627047434BD3F800220120024310B44E
:10FAA000C3F80022D3F8002222F47C52C3F80022CB
:10FAB000D3F800224C6A42EA0422C3F800224A69C1
:10FAC00002F01F0C00FA0CF0D3F81CC22CEA000C58
:10FAD000C3F81CC2D1F81CC0BCF1000F47D1D3F849
:10FAE0000CC22CEA000CC3F80CC2D200CC688B8884
:10FAF00002F1804202F5C84243EA0443C2F84032B0
:10FB00008C680B8843EA0443C2F844328B69254A67
:10FB10003BBBD2F8043223EA0003C2F804320B697B
:10FB2000204AC3B9D2F8143223EA0003C2F81432CF
:10FB30000B6A012B05D11B4AD2F81C320343C2F8D1
:10FB40001C32184AD2F8003223F00103002010BC06
:10FB5000C2F800327047D2F814320343C2F81432AC
:10FB6000E6E7D2F804320343C2F80432D7E7BCF127
:10FB7000010FCBD1D3F80CC24CEA000CC3F80CC275
:10FB8000D2000C688B8802F1804202F5C84243EA39
:10FB90000443C2F840328C688B8943EA0443C2F8BC
:10FBA0004432B3E70064004038B590F82030012BB0
:10FBB000044605D0436A43F400234362012038BD64
:10FBC0000268022380F82030136823F001031360D9
:10FBD000FFF738FC054604E0FFF734FC431B0A2B13
:10FBE00007D823685B6813F00103F5D163621846F8
:10FBF00038BD636A052243F40033636284F8202031
:10FC0000DCE700BF38B590F82030022B044605D061
:10FC1000436A43F480134362012038BD02681368CD
:10FC200043F001031360FFF70DFC054604E0FFF706
:10FC300009FC431B0A2B0CD823685A68D207F6D557
:10FC40001A68012122F002021A6084F820100020B4
:10FC500038BD636A052243F40033636284F82020D0
:10FC6000DAE700BF10B590F820C01C460CF1FF3C4D
:10FC70000368BCF1010FD3F808E032D81EF0E05F52
:10FC800041D0CEF3016E012000FA0EF02060D1E9E0
:10FC9000020C60BB08684CEA40500EF1180C4FEAA9
:10FCA0000C1C43F80C0003EB0E1C0869CCF8840113
:10FCB000097D012905D1DCF8841141F48071CCF86B
:10FCC000841103EB0E135168C3F88C111268C3F84A
:10FCD0008821DCF8803143F001030020CCF880312A
:10FCE00010BD436A43F480234362012010BD4C6879
:10FCF00040EA0C000EF1180C4FEA0C1C40EAC4005C
:10FD000043F80C00CFE7436A43F400134362ECE787
:10FD100090F82020013A012A034605D9426A42F4AC
:10FD2000802201205A627047CA0704D500688268A1
:10FD300042F080028260880704D51868826842F425
:10FD4000004282604A0704D51A68936843F40003AE
:10FD500093600020704700BF90F82030013B012BDA
:10FD600001D900207047036898689A689B6812015F
:10FD7000C0F3806048BF0130DB00F3D5013070472D
:10FD800090F820C00CF1FF3CBCF1010F77D810B502
:10FD9000D0F800C051B9DCF80CE01EF0030F0AD116
:10FDA000436A43F400134362012010BDDCF810E005
:10FDB0001EF0030FF4D00CEB011EDEF8B04104F08E
:10FDC00004049460002C60D0DEF8B041E408546074
:10FDD000DEF8B04104F00204D460DEF8B441240738
:10FDE00056BFDEF8B441082404F00F041461DEF8B5
:10FDF000B441DEF8B4E10CEB011CC4F307249461B8
:10FE00004FEA1E4EDCF8B841C2F814E01C700268DC
:10FE100002EB0112D2F8B821120A5A70026802EB02
:10FE20000112D2F8B821120C9A70026802EB01128A
:10FE3000D2F8B821120EDA70026802EB0112D2F881
:10FE4000BC211A71026802EB0112D2F8BC21120A1D
:10FE50005A71026802EB0112D2F8BC21120C9A719D
:10FE6000026802EB0112D2F8BC21120EDA710368AB
:10FE700081B9DA6842F02002DA60002010BD436ADE
:10FE800043F48023436201207047DEF8B041640DE3
:10FE900014609DE71A6942F020021A61EDE700BF85
:10FEA00090F82030013B012B01D9002070470368F6
:10FEB00019B9D86800F003007047186900F0030012
:10FEC000704700BF90F82020013A012A034605D967
:10FED000426A42F4802201205A62704702685369E4
:10FEE0000B43002053617047704700BF704700BF4D
:10FEF00003682DE9F0435C695F689A68D9681E69F8
:10FF0000B0469E69B14614F0010683B005461FD085
:10FF1000D60700F182800026D0050BD52B684FF460
:10FF200080709860930500F1BA80500540F1D88048
:10FF300046F40056D0030BD52B684FF48030986000
:10FF4000930300F19F80500340F1CF8046F40046B8
:10FF5000230701D5C8065AD4620701D50B0771D40F
:10FF6000A00703D52B68DB68990772D1620602D51A
:10FF700018F0100F5CD1A30602D518F0080F73D14A
:10FF8000E00603D52B681B69990757D1A20301D559
:10FF9000FB0662D4E00301D539076CD4220431D5C5
:10FFA0007B072A682CD509F0010314F4807F43EA0B
:10FFB000060318BF1E46A70517D519F0020F14D067
:10FFC000600546F0020604F4006372D519F0040FD0
:10FFD0006DD193B9042353606B6A334328466B6237
:10FFE0001DF044FE03B0BDE8F083610504F4006336
:10FFF00002D519F0040F5AD113B119F070035DD175
:020000040801F1
:1000000004235360002EE7D103B0BDE8F0832B68D2
:10001000102246F40076DA609EE701269E6096077D
:1000200036D4530766D4160774D54FF4805673E759
:100030002B68102246F480661A619CE728461DF062
:10004000F7FCA3E72B680822DA6028461DF04EFD76
:1000500086E728461DF092FC88E72B6810225A603C
:100060002846FFF741FF95E72B6808221A612846CA
:100070001DF054FD84E72B6808225A602846FFF7DC
:1000800035FF8BE7284600911DF090FD00995FE752
:10009000CDE900211DF05AFDDDE900213BE72846AE
:1000A000CDE900211DF06AFDDDE9002142E746F0BF
:1000B0000406002B8ED019F070038BD0402B43D058
:1000C0001BD8202B5BD0302B50D0102B37D193690D
:1000D000042123F07003936146F0080651607BE72A
:1000E000130524D546F4804624E7120319D546F4B7
:1000F00080362DE74FF400660EE7502B2DD0602B95
:100100001DD19369042123F07003936146F4807636
:10011000516061E7CDE900211DF060FDDDE90021BE
:10012000F9E6284600911DF089FD009910E7284660
:10013000CDE900211DF06AFDDDE90021FAE69369B1
:1001400023F0700393615BE79369042123F070034C
:10015000936146F0400651603EE79369042123F025
:100160007003936146F08006516035E7936904217E
:1001700023F07003936146F0200651602CE79369E9
:10018000042123F07003936146F01006516023E7C9
:1001900090F82020013A012A034605D9426A42F428
:1001A000802201205A62704700205862704700BFC9
:1001B0000749CA6803024FF6FF0003F4E0630240F8
:1001C000134343F0BF6343F40033CB60704700BF79
:1001D00000ED00E0164BDB68C3F30223A3F1030C30
:1001E000BCF1040F00B519D84FF0FF3EC3F107036F
:1001F0000EFA03F30EFA0CFE22EA0E02DB4319405C
:1002000001FA0CF1114300284FEA01110ADB00F159
:10021000604000F5614080F8001300BD00220F230C
:100220009446ECE7034B00F00F00C318197600BDAD
:1002300000ED00E0FCEC00E0002807DB044A410987
:10024000012300F01F00834042F82130704700BFB7
:1002500000E100E000280CDB4309064900F01F0024
:1002600020330122824041F82320BFF34F8FBFF398
:100270006F8F704700E100E038B50446FFF7E2F801
:10028000002C6BD023680022022184F8351084F8FA
:1002900034201A6822F0010205461A6005E0FFF7D3
:1002A000D1F8401B052837D823681A68D107F6D43F
:1002B000D4E90120E16802430A43D4E90451A0696A
:1002C0002A430A43E1691D6802430A433149294030
:1002D000256A2A430A43616A042924D01A605A69AC
:1002E00022F007021143D8B22B4A59611038A2FB01
:1002F0000052120929496FF30903895CE1655F28FF
:1003000088BF04333F228A40A36500209A600123FE
:10031000606584F8353038BD03232022626584F897
:100320003530184638BDD4E90B51294311431960C3
:100330005969A26A21F00701114341F00401002D1F
:10034000D1D068B9012A21D032F00202CBD1EA0122
:10035000C9D540220123626584F83530012038BDBB
:10036000B0F5005F04D0022AF3D9032AEFD0BAE730
:10037000032AB8D801A050F822F000BF53030108A7
:100380004F030108530301088D030108B5F1C07F35
:10039000A9D1DEE73F8010F0ABAAAAAA9415050800
:1003A00090F834C0BCF1010F3FD010B58E46114615
:1003B000826D144690F835204FF0010C624580F8AC
:1003C00034C004D0002380F83430022010BD4FF038
:1003D000020C80F835C002684FF0000CC0F854C021
:1003E000D2F800C02CF4802CC2F800C0536083689F
:1003F000402B0EBF9160C2F808E0D160C16D08BF0C
:10040000C2F80CE03F238B40A3601368016C43F0FB
:100410001603136019B1136843F0080313601368DF
:1004200043F001030020136010BD0220704700BF9D
:1004300070B5836D04461E46FFF704F894F8353016
:10044000022B06D080236365002384F8343001201A
:1004500070BD23681A6822F016021A605A6922F0E9
:1004600080025A61226C054642B31A6822F00802E3
:100470001A601A6822F001021A6005E0FEF7E2FF36
:10048000401B052810D823681B6813F00103F5D121
:10049000E16D3F228A40184601210023B26084F8B2
:1004A000351084F8343070BD03232022626518466D
:1004B00084F83530002384F8343070BDA26C002AF3
:1004C000D3D1D6E790F83530022B03D08023436593
:1004D000012070470268052380F83530136823F047
:1004E000010300201360704770B584B07249846DB9
:1004F0000E6800230393C36D2268082199401142BE
:1005000007D0D0F800C0DCF800E01EF0040F40F087
:100510008A8001219940114205D00568D5F814C0A0
:100520001CF0800F79D104219940114205D0056853
:10053000D5F800C01CF0020F69D11021994011427A
:1005400006D0D0F800C0DCF800E01EF0080F44D15F
:1005500020219940114218D00268D2F800C01CF046
:10056000100F12D0A16090F8351005296DD01368D6
:1005700013F4802F136800F08780190340F19280F4
:10058000C36B13B1009098470098436D1BB3436D44
:10059000DA071AD50168494A052380F835300B6817
:1005A000A2FB064223F00103920A0B6002E00B68F3
:1005B000DB0704D5039B013393420393F7D9012250
:1005C000002380F8352080F83430C36C1BB104B0B0
:1005D000BDE87040184704B070BDA160DCF80010A1
:1005E00011F4802FDCF8001029D1CD0505D4DCF8FA
:1005F000001021F00801CCF80010016C0029A7D0F0
:10060000CDE9000288470098019AC36DA0E7A16078
:10061000416D41F0040141658FE7A160416D41F0FA
:10062000020141657FE7DCF800E02EF0040ECCF813
:1006300000E0A160416D41F00101416569E70903F6
:10064000DBD5816C0029DBD182E7116821F016012E
:100650001160516921F080015161016C39B3116859
:1006600021F0080111603F2202FA03F3016DA3603B
:100670000122002380F8352080F834300029AAD0E8
:1006800004B0BDE87040084713F480737FF478AF7E
:10069000116821F010011160012280F8352080F8E6
:1006A00034306DE7436C002B7FF46CAF6DE7816CE9
:1006B0000029D4D1D7E700BF00000010B5814E1B40
:1006C00090F83500704700BF1B4BDA68D10605D59E
:1006D0001A49CA6910200243CA61D860164BDA6809
:1006E000920606D51549CA69202042F00802CA615F
:1006F000D860114BDA68500606D51049CA69402007
:1007000042F00402CA61D8600B4BDA68110606D5C4
:100710000A49CA69802042F00202CA61D860064BC9
:10072000DA68920706D50549CA69022042F020021C
:10073000CA61D860704700BF003C0240BC0D012078
:10074000064B1A69002A01DB002070470449054A5C
:1007500059605A601869C00F704700BF003C0240E2
:1007600023016745AB89EFCD034A136943F000438A
:1007700000201361704700BF003C024038B5184BA1
:100780000022DA610446FEF75DFE164AD368DD03F7
:100790000CD5611C16D00546FCB1FEF753FE401B7C
:1007A000A0421AD80F4AD368D803F6D40D4BDA68A2
:1007B000D20744BF0122DA600A4BD86810F0F20079
:1007C00007D138BDD368DC03F0D5D368DC03F9D496
:1007D000ECE7FFF779FF012038BD032038BD00BFEB
:1007E000BC0D0120003C02402DE9F0412C4C984604
:1007F000237E012B2ED0074601234CF250300E46AB
:1008000015462376FFF7BAFF18B100232376BDE81B
:10081000F081244B0FB3012F34D01A6922F44072B7
:100820001A61022F1A6924D042F440721A611A69BF
:1008300042F001021A613560BFF36F8FC6F8048081
:100840004CF25030FFF79AFF164A136923F0010368
:100850001361DAE70220BDE8F0811A6922F44072E0
:100860001A611A691A611A6942F001021A61357037
:10087000E6E742F400721A611A6942F001021A6155
:100880003560DDE71A6922F440721A611A6942F490
:1008900080721A611A6942F001021A613580CFE74D
:1008A000BC0D0120003C02400D4B1A6922F440723D
:1008B0001A611A69022994BF09024FF440710A4370
:1008C0001A611A6922F0F8021A611A6942EAC00232
:1008D00042F002021A611A6942F480321A617047CA
:1008E000003C0240144B1A6891050FD51A6822F497
:1008F00000721A601A6842F400621A601A6822F4E0
:1009000000621A601A6842F400721A600A4B1A6890
:1009100052050FD51A6822F480621A601A6842F4F0
:1009200080521A601A6822F480521A601A6842F4DF
:1009300080621A60704700BF003C02402DE9F84316
:100940002D4F3B7E012B38D0012305464CF2503011
:100950000C4689463B76FFF711FF064640BB4FF039
:10096000FF3323602B68012B2BD0D5E902432344AE
:100970009C421BD2DFF8848005E0D5E902230134D4
:100980001344A34212D9297C2046FFF78DFF4CF275
:100990005030FFF7F3FED8F8103023F0FA03C8F810
:1009A00010300028E9D0C9F800400646FFF79AFF4A
:1009B00000233B763046BDE8F88302263046BDE88A
:1009C000F8830E4C2B69226922F44072226122695D
:1009D00042F00402226122691B029BB2134343F4DA
:1009E000803323614CF25030FFF7C8FE236923F0B7
:1009F000040306462361D9E7BC0D0120003C0240F8
:100A00002DE9F04FD1F800C0DFF8FCA1764C87B09B
:100A100000234FF0010B894603E00133102B00F057
:100A20008A800BFA03F202EA0C0832EA0C02F4D1D3
:100A3000D9F8041001F003055A006E1E03279740F1
:100A4000012E01977AD9032D09D0C668019F26EAA5
:100A5000070ED9F80860964046EA0E06C66005FA09
:100A600002F2019E056825EA06052A4311F4403F7B
:100A70000260D2D000220592DAF8442042F480428B
:100A8000CAF84420DAF8442002F480420592059A1C
:100A900023F0030202F1804202F59C3203F00306C8
:100AA0009568B6000F27B74025EA07054F4FB842B3
:100AB0001BD007F58067B84277D04D4FB84279D048
:100AC0004C4FB8427BD04C4FB8427DD04B4FB842D0
:100AD0007FD04B4FB84200F081804A4FB8420CBFE4
:100AE0000727082707FA06F635439560A268CF0264
:100AF00054BF22EA080248EA0202A260E2688E02BB
:100B000054BF22EA080248EA0202E26062688D03EA
:100B100054BF22EA080248EA020262602268C9035E
:100B200003F1010354BF22EA080248EA0202102B33
:100B300022607FF476AF07B0BDE8F08F866826EAC2
:100B4000070ED9F80C60964046EA0E0686604668A5
:100B500026EA080EC1F300169E4046EA0E064660DD
:100B6000C66826EA070ED9F80860964046EA0E06DF
:100B7000022DC6607FF473AFDE0800EB8606029696
:100B8000376AD9F81060039703F0070E4FEA8E0E0C
:100B90000F2706FA0EF607FA0EFE039F27EA0E0E3F
:100BA000029F46EA0E063E6259E7012707FA06F65B
:100BB00035439AE7022707FA06F6354395E70327F8
:100BC00007FA06F6354390E7042707FA06F6354399
:100BD0008BE7052707FA06F6354386E7062707FA67
:100BE00006F6354381E700BF003C014000000240AB
:100BF00000080240000C02400010024000140240B5
:100C000000180240001C0240003802402DE9F04F5D
:100C10000023DFF83CA101264FF00F094FF0030B32
:100C200002E00133102B6FD006FA03F232EA01041E
:100C300002EA010CF5D123F0030505F1804505F525
:100C40009C3503F00304A400D5F808E009FA04F881
:100C50005045274608EA0E0E18D0354CA04255D014
:100C6000344CA04255D0344CA04255D0334CA04215
:100C700055D0334CA04255D0324CA04255D0324CC6
:100C8000A0420CBF07240824BC4000E00024A64575
:100C900015D12E4C2D4F246824EA0C043C607C684E
:100CA00024EA0C047C60FC6824EA0C04FC60BC6848
:100CB00024EA0C04BC60AC6824EA0804AC60056853
:100CC0005C000BFA04F44FEAD30C25EA040500EBB0
:100CD0008C0C056003F00705DCF820E0AD0009FA94
:100CE00005F52EEA0505CCF82050C56825EA04056F
:100CF000C560456825EA020242608268013322EA43
:100D00000402102B82608FD1BDE8F08F06FA07F441
:100D1000BDE70224BC40BAE70324BC40B7E7042483
:100D2000BC40B4E70524BC40B1E70624BC40AEE7B4
:100D30000004024000080240000C02400010024083
:100D40000014024000180240001C0240003C014018
:100D5000000002400369194214BF012000207047BF
:100D600002B9090481617047436901EA030221EA7B
:100D7000030141EA02418161704700BF044A5169A1
:100D8000014200D1704708B550611CF0C5FD08BD97
:100D9000003C0140002800F0BE8038B590F83D309E
:100DA000044603F0FF02002B00F0A18023682422F8
:100DB00084F83D201A6822F001021A601A6842F491
:100DC00000421A601A6822F400421A6001F024FD01
:100DD000524B62689A4227D8514B984227D95149C1
:100DE0005300A1FB002C421EB2FBF3F223685968AA
:100DF00021F03F0141EA9C415960196A4FEA9C4E3B
:100E00000EF1010E21F03F0141EA0E011962D9698C
:100E100040F6FC70013221F44F41024221F0FF0103
:100E200075D0C2F30B0238E03F4B984201D8012045
:100E300038BD3C4B3D4DA3FB003E2368D3F804C0B6
:100E40002CF03F0C4CEA9E4CC3F804C04FEA9E4184
:100E50004FF4967C0CFB01F1A5FB01C1D3F820C037
:100E6000A568890901312CF03F0C41EA0C01196297
:100E7000D96921F44F41013821F0FF01002D3BD009
:100E800002EB820202EB8202B0FBF2F20132C2F309
:100E90000B02002A3DD042F440420A43DA61D4E911
:100EA00007201968024321F0C0010A431A609968BB
:100EB000D4E9030221F40341024321F0FF010A4374
:100EC0009A60D4E90520D968024321F0FF010A4362
:100ED000DA601968002241F00101202019602264C3
:100EE00084F83D00226384F83E20104638BD80F827
:100EF0003C20FDF7C9FB59E702EB4202B0FBF2F2DE
:100F00000132C2F30B0222B142F40042C5E70422CF
:100F1000C3E70122C1E70120704700BFA08601009E
:100F20007F841E0083DE1B43FF083D00D34D62100B
:100F3000C8B100B50168242283B080F83D200A685A
:100F4000019022F001020A60FDF7F8FB0022019BEC
:100F500010461A6483F83C2083F83D201A6383F816
:100F60003E2003B000BD0120704700BF10B582B025
:100F70008446002001909CF83D00202825D19E4603
:100F80002E4B18682E4BC008A3FB0030000A00EB64
:100F9000800000EB8000019004E0DCF800309869EC
:100FA000840715D5019B013B019301980028F4D1DA
:100FB0002023CCF830008CF83D308CF83E00DCF873
:100FC000403043F02003CCF84030022002B010BD86
:100FD0009CF83C000128F8D01868C00703D41868B2
:100FE00040F0010018601868164C20F4006018608A
:100FF000CCF8242022228CF83D20002010228CF8EE
:101000003E20CCF84000ACF82AE0BCF82A208CF84E
:101010003C00CCF82C40CCF84410ACF828205A689E
:1010200042F4E0625A601A6842F480621A601A68F8
:1010300042F480721A6002B010BD00BF00000010C0
:1010400089B5F8140000FFFF70B582B01E4600237A
:10105000019390F83D30BDF81CE0202B25D1324B98
:1010600084461868314BC008A3FB0030000A00EB2F
:10107000800000EB8000019004E0DCF8003098690B
:10108000840715D5019B013B019301980028F4D1F9
:101090002023CCF830008CF83D308CF83E00DCF892
:1010A000403043F02003CCF84030022002B070BD45
:1010B0009CF83C000128F8D01868C00703D41868D1
:1010C00040F0010018601868194D20F400601860A5
:1010D0000698CCF8240021208CF83D000024402004
:1010E0008CF83E00CCF84040ACF82AE0BCF82A006E
:1010F000CCF82C50CCF84410CCF84820CCF84C60FC
:10110000CCF850401A68ACF8280042F480721A609B
:101110004FF000028CF83C205A68204642F4E0620E
:101120005A6002B070BD00BF0000001089B5F8140D
:101130000000FFFF70B582B01E460023019390F8B7
:101140003D30BDF81CE0202B22D12F4B1B684FEA0D
:10115000D30C2E4BA3FB0C3C4FEA1C2C0CEB8C0C41
:101160000CEB8C031546019303E003689A6994071E
:1011700011D5019B013B0193019B002BF5D120224E
:10118000036380F83D2080F83E30036C1343036412
:10119000022002B070BD90F83C20012AF8D01A68F5
:1011A000D20703D41A6842F001021A601A68184C78
:1011B00022F400621A60069A4262222280F83D20E0
:1011C0004FF0000C402280F83E20C0F840C0A0F84C
:1011D0002AE0428DC46241648564C664C0F850C090
:1011E000196892B241F4806102851960196841F46E
:1011F0008071196080F83CC01AB15A6842F4E0620C
:101200005A60002002B070BD0000001089B5F814CB
:101210000000FFFF704700BF704700BF704700BF6E
:10122000704700BF08B590F83D20016D034659B9DD
:10123000C26C0168012A826C1BD0C2F307220A61CA
:10124000026D0132026508BD016D012909D0016DF1
:10125000022914D003685A69120644BF00221A6199
:1012600008BD826C0168D2B20A61026D013202656A
:1012700008BDD2B20A61026D0232026508BDD2B267
:10128000222A22D0418D89B2D9B9418D89B2002953
:10129000D9D1212AD7D10268D2F804C02CF4E06C4D
:1012A000C2F804C0D2F800C04CF4007CC2F800C000
:1012B0002022016380F83D2080F83E101CF070FD74
:1012C00008BD212A0AD05B8D08BD01680A6842F476
:1012D00080720A60026D0132026508BD416A0268CF
:1012E00011F8010B10615A8D5962013A5A8508BDF7
:1012F000704700BF3E4B3F4A1B68806B10B5DB0850
:10130000A2FB032382B01B0A002203EB830301929A
:10131000C3EBC30390F83DC00268019305E0019B55
:10132000013B019313689B0506D5019B002BF6D169
:10133000036C43F020030364D0E90D1381B34FF035
:10134000000EC1F83CE013B31468C3F83CE024F489
:1013500080641460A0F82AE0C1F850E0002119650B
:10136000136823F00103136090F83D30602B2ED0FA
:101370000CF0280CBCF1280F1CD02022002380F890
:101380003D2080F83E301CF00FFD02B010BDD2F8B9
:1013900000E02EF4806EC2F800E043850B65DFE7C5
:1013A00003B3D2F800E0D9632EF4806EC2F800E0F7
:1013B0004185D3E7136843F00103136013680021EC
:1013C00043F480631360016380F83DC0DBE70023D2
:1013D000202280F83D2080F83E300364FFF788FF2C
:1013E00002B010BD116821F4806111604385B7E738
:1013F0000000001089B5F81410B590F83D2090F861
:101400003E30102B0446D2B239D0D9B2402936D062
:1014100002F02801282923683CD05968080507D420
:10142000602A05D02021002284F83D1084F83E2057
:10143000002222635A6812F4006233D194F83D10FE
:10144000602974D05A69500605D5626A1B69137009
:10145000636A0133636220461CF0A6FC236C190703
:1014600004D02268536823F4E063536094F83D305D
:10147000226C5207DBB201D5282B2ED010BD222AB8
:10148000C6D123681A6822F400621A605A681205ED
:10149000C8D5CDE70022226384F83D105A6812F4C3
:1014A0000062CBD05A68606B22F400625A6090F8F8
:1014B0003530012B1ED0294B0365FFF703F80028B8
:1014C000CCD02268606B1368202123F001031360E5
:1014D00084F83D10036D9847C0E700232049E1627E
:1014E00020222363204684F83D2084F83E30FFF715
:1014F00097FE10BDA06B194B0365FEF7E3FF0028B4
:10150000ACD023685A69510606D5626A1B6913700C
:10151000626A2368013262621A68A06B22F00102DB
:1015200020211A6084F83D10036D984796E720212A
:1015300084F83D1022645A69520606D5626A1B6916
:101540001370626A2368013262621A6822F0010233
:1015500020461A60FFF7CCFE80E700BFF5120108B5
:101560000000FFFF30B502685468D0F82CE090F816
:101570003E10034690F83D00102991B0C0B25FFACA
:1015800081FC26D0BCF1400F23D0196C002900F05B
:10159000E18051694FF0000C11F0020E00F09E80C6
:1015A000A50540F19D80196C09B1D2F818C093F8D7
:1015B0003D1001F02801282900F0488200210E91F9
:1015C00050690E9092690E920E9A83F83C1011B0F9
:1015D00030BD91690D46516911F0010F1BD1BEF567
:1015E0002A0FF4D0BEF12A4FF1D011F0080E39D0F5
:1015F00014F4007F3AD0596C586BC9B211610028BD
:1016000000F01182C16B002900F00D82536843F491
:1016100000635360DBE714F4007F27D0D96AB1F58B
:101620002A0F00F00982D96AB1F12A4F04BF0821BC
:10163000D96293F83E10402900F001821969B1F592
:10164000804F00F0DF81196D002900F06C81196D69
:101650000129BCD15B6CDB1103F0060343F0F103FD
:101660001361B4E711F0020F40F046816D0775D5A4
:10167000D2F804E01EF4006FA9D101F0040E0906AF
:1016800040F15981650540F15681BEF1000F40F0EF
:10169000568193F83D101C8D93F83E00D3F82CC072
:1016A000C9B2C0B2002C40F0A482212900F06E83A0
:1016B00040288CD122298AD1598D89B2002976D02F
:1016C00093F83E10402900F04481596A11F8010B4B
:1016D00010615A8D5962013A5A8578E7CD066BD46C
:1016E00000F0F70CBCF1210F01F0040000F0BF8006
:1016F000490640F1F280650540F1EF80002840F096
:10170000EF8093F83D00598D89B2C0B200293FF4B3
:101710005EAF596A12690A705A8D596A013A5A8540
:101720005A8D013192B25962002A7FF450AF2A28B3
:101730007FF44DAF19684A684FF0220C282422F438
:1017400080624A601846C3F830C083F83D40FFF716
:1017500063FD3CE7D2F818C051691DE750680005E9
:101760003FF535AF01F00400490640F1F88065050A
:1017700040F1F580002840F0F58093F83D102229D3
:101780007FF425AFDC6A598D89B2032940F21683B4
:10179000596A12690A705A8D596A013A5A855A8DE6
:1017A00092B20131032A59627FF411AF1A6853686B
:1017B00023F4806353600AE7A50591D593F83D4073
:1017C000516821F4E0615160CDF83CE051690F911E
:1017D000116841F0010111600F99116821F48061D5
:1017E000116051680905E4B200F1D9805A8D92B2B6
:1017F00002B31A6851694D0709D5596A12690A700E
:101800005A6A598D501C01391A68586259855169B4
:10181000480608D5596A12690A70596A5A8D013109
:10182000013A59625A855A8D92B21AB11A6C42F035
:1018300004021A641A6C002A40F0DE802A2C00F0A0
:101840006D8193F83D20282A00F05B811A6B222AD3
:1018500002D0222C7FF4BBAE002220211A6318464E
:1018600083F83D1083F83E20FFF7D6FCAFE609066B
:1018700027D5650525D538BB93F83D00598D89B22C
:10188000C0B200293FF4A3AE596A11F8014B1461AC
:101890005962598D01395985598D89B200297FF4D2
:1018A00096AE29287FF493AE5168282421F48061F4
:1018B00051601846C3F830C083F83D40FFF7AAFCDA
:1018C00085E600283FF483AEA0057FF580AE598DF4
:1018D00089B200293FF47BAEF7E600283FF477AEEB
:1018E000A1057FF574AE598D89B200293FF46FAE22
:1018F000596A12690A704BE014F4007F3FF4B6AEE7
:1019000093F83E10DC6AD3F830C093F83D002228EB
:10191000C9B200F0DA80CDF830E053690C939369D6
:101920000C930C9B53E65B6CDB1103F0060343F056
:10193000F00313614BE6BEF1000F3FF448AEA4057F
:101940007FF545AE212800F02981BCF1400F7FF4DE
